S00B0000626169342E73333789
S11300000010002039080000152E0000152E0000F5
S1130010152E0000152E0000152E0000152E0000D0
S1130020152E0000152E0000152E0000152E0000C0
S1130030152E0000152E0000152E0000152E0000B0
S1130040152E0000152E0000152E0000152E0000A0
S1130050152E0000152E0000152E0000152E000090
S1130060152E0000152E0000152E0000152E000080
S1130070152E0000152E0000152E0000152E000070
S1130080152E0000152E0000152E0000152E000060
S1130090152E000099030000152E0000152E0000F7
S11300A0152E0000152E0000152E0000152E000040
S11300B0152E0000152E0000152E0000152E000030
S11300C0152E0000152E0000152E0000152E000020
S11300D0152E0000152E0000152E0000152E000010
S11300E0152E0000152E0000152E0000152E000000
S11300F0152E0000152E0000152E0000152E0000F0
S1130100152E0000152E0000152E0000152E0000DF
S1130110152E0000152E0000152E0000152E0000CF
S1130120152E0000152E0000152E0000152E0000BF
S1070130152E000084
S11301340348044B834202D0034B03B1184770476E
S1130144F8190020F819002000000000064B0749A4
S1130154C91A891048BF0131491003D0044B0BB1AB
S113016401481847704700BFF8190020F819002007
S11301740000000010B5064C237843B9FFF7D8FFFC
S1130184044B13B10448AFF300800123237010BD62
S1130194A4110020000000001C3D000008B5054B1C
S11301A41BB105490548AFF30080BDE80840FFF7DB
S11301B4CDBF00BF00000000001000201C3D000063
S11301C4A3F5803A704700BF174B002B08BF134BAD
S11301D49D46FFF7F5FF00218B460F461348144A4A
S11301E4121A02F076FF0E4B002B00D098470D4BE9
S11301F4002B00D098470020002104000D000D4876
S1130204002802D00C48AFF3008002F0A3F82000C9
S1130214290000F017F901F001FF00BF00000800F5
S11302240000000000000000001000200010002066
S11302347C1900200000000000000000034A136938
S113024423F00403136130BF704700BF00ED00E0E6
S113025438B5064D441E14F8011F01B938BDAB6905
S11302645B06FCD5284602F05AFEF4E700800550EC
S113027430B5ADF24C4D12AC4FF4806200212046EF
S113028402F027FF00231A46104D15F8010B60B93C
S1130294AAB1009240210E4A02A801F0E1FF02A88B
S11302A4FFF7D6FF0DF24C4D30BD54F82010013148
S11302B49142C4BF03460A4644F82010E5E74021AE
S11302C4044A02A801F0CCFFE9E700BFA911002009
S11302D4D8360000E236000010B501240648074A67
S11302E4036B14630022DB07426203D402F010FEA2
S11302F4034B1C6310BD00BF0080045000900450E5
S113030400A0045037B51025174B00241868019039
S113031401A801F0ABFA154B2A460021184602F055
S1130324D8FE134A134B0260134AC3E901444260E2
S1130334124ADC608260124A21461A60114B2A4632
S1130344184602F0C6FE4FF4447242800E4A0F4B24
S113035442600F4AC3E9014482604FF48022DC60A6
S11303641A6003B030BD00BFB43800004C10002044
S1130374703E10303C100020911500203C80055044
S1130384020004002C100020248005501C100020BE
S1130394A811002010B5204A536D116D126D0B4045
S11303A41340990705D502211C4A116501211C4AF1
S11303B41170DA0724D50122184B1A65194B1B78DE
S11303C4013B934208D8184A93695B06FCD5174B42
S11303D41548197802F0A3FD144A154910780B68DE
S11303E40D28144806D014780A2C03D040F2E634BD
S11303F4A34206D90022C25401200F4B0A6018708C
S113040410BD12785C1CC2540C600020BDE810407E
S11304140A4A0B4901F06ABA00000450002004504F
S1130424A6110020A511002000800550A811002069
S113043418100020A9110020A71100202C1000205E
S11304441C1000202DE9F04F93B002F0C9FD02F016
S1130454AFFC012304220521002001F0BFF900238D
S113046401221846062101F0B9F90422984D01230A
S11304741146032002AC01F0B1F90FCD0FC495E885
S1130484070084E807004FF4A022924B9248C3F873
S1130494C4254FF4C022C3F8BC25142202A9C3F80E
S11304A4AC2501F0E5FBFFF72DFF0F2200210DF130
S11304B4090002F00EFE0123884C02A920468DF89F
S11304C4083001F0BBFA236BDA0704D440F2B641D6
S11304D4834802F0B2FC4FF0FF33E361814BDFF851
S11304E46882D3F8F00101F0ABFD7F48FFF7B0FE5A
S11304F47E48FFF7ADFE7E48FFF7AAFE7D48FFF76E
S1130504A7FE7D48FFF7A4FE00207C4A7C4988F8B6
S1130514000001F0EBF998F8003063B1DFF82CA285
S1130524784D9AF80030312B08D1002376482B708B
S1130534FFF78EFE16E0FFF781FEECE7322B06D1BF
S1130544012372482B70FFF783FE7148F0E7332BC5
S113055403D102236F482B70F5E76F48FFF778FE49
S113056400232B7002F049FD02F023FC0020634AAF
S1130574634988F8000001F0B9F998F800302BB108
S11305842B7833B9FFF774FE6448D1E7FFF756FEBE
S1130594F3E79AF80030A3F13102022A00F29580BD
S11305A4312B6AD0332B0CBF4FF47A7464245C4F20
S11305B40026BB46B94601F071FD5F2290FBF2F1BF
S11305C401FB120001362030A6420BF8010BF2D1D4
S11305D40D2209EB040303F8022C4FF0000B0A224A
S11305E403F8012C09F804B095F80090B9F1010F4F
S11305F448D14C4E59461022304602F06AFD4A4B0B
S1130604621E92B243EA0213326823F04F4322F08B
S1130614405223F46F0322F4831223F4004322F49C
S1130624FF5222F0100223F00F031343C6E90037EC
S11306343E4B2A4FB360FFF74FFE3D4BC7F80C9077
S1130644324648463B4983F800B001F04FF9384B31
S11306541A78A2B102221D20FA607E6A00F0AAFC74
S1130664354B364AB0FBF3F3B6FBF3F30094402165
S113067402A801F0F5FD02A85AE70A2497E7FFF758
S1130684DDFDE4E7FFF728FE01225E46134BDFF8A5
S11306944890DA60D9F818305B06FBD5484617F859
S11306A4011B013602F03BFCA642F3D102220B4BA0
S11306B41D20DA605C6A00F07DFC1F4B204AB0FB0D
S11306C4F3F30096B4FBF3F3D1E71E4830E700BF1D
S11306D4B838000000C00350008005500080045066
S11306E4EA3600000080E00F4A3700006237000059
S11306F47537000088370000A33700002C10002051
S11307041C100020A5110020B2370000D3370000CC
S1130714F2370000233800004A380000D0370000C4
S1130724911500204C100020000010303C8005502E
S1130734A61100203C10002040420F007038000035
S1130744863800009F380000A7110020A91100205A
S113075407B501A801F04EF99DF80530012B27D106
S11307641E4A936DDB0313D4536B23F4FF0323F466
S1130774FE4343F4BC1343F4A0635363136B23F4A5
S1130784704343F440431363136B43F4E063136310
S11307949DF8043063B94FF000531B68104B1B6879
S11307A4104B1B68104B1B68104B1B68104B1B68C9
S11307B4104AD2F8803043F00303C2F8803002F0C8
S11307C404FC00F023F802F0FEFB02F0ADFB01F0A0
S11307D4B3FB03B05DF804EB00F00EB800C00050A6
S11307E4004000200080002000C000200000012000
S11307F4004001200080005008B5034802F09BFB30
S1130804BDE8084002F0D6BAB03B0000014802F04B
S113081492BB00BFB03B00000348044A0449121AC7
S1130824921002F0F6BA00BF340100003401000053
S11308347C19002008B500F02FF8FFF7EDFF124BE8
S113084412498B4212D30020114B12498B4218D304
S1130854FFF7BAFC186850F82240586840F8224060
S1130864013298688242F5D30C33EAE70022F8E7B0
S11308741C6844F8220001325C68A242F8D30833AD
S1130884E4E70022F8E700BF243D0000303D000007
S1130894303D0000303D000070B5124B124A134D38
S11308A49A60D3F8882005F5005442F47002C3F822
S11308B488206FF00102226641F2FF72626602220E
S11308C4C3F8D020BFF34F8FBFF36F8F4FF440367C
S11308D4032001F05DFB0320E66001F03FFB2E6181
S11308E470BD00BF00ED00E0000000000080004483
S11308F4014B1868704700BF80190020014B186031
S1130904704700BF80190020084B1B6F03F00703D6
S1130914022B04D0032B05D0012B05D0FEE7044B96
S113092418687047034BFBE7034870470080005086
S11309348019002088190020002D310108B5FFF723
S1130944E3FF054B1B6FC3F301330133B0FBF3F037
S1130954024B186008BD00BF008000507C190020C1
S11309640048704700B4C404014B1868704700BFC2
S113097488190020054B1860054B1B6F03F007030F
S1130984032B01D1FFF7DABF704700BF8819002099
S11309940080005000487047002D3101174B9868BF
S11309A4C0F304400C280AD8DFE800F00B09090955
S11309B40909072119091B1D1F001148704700204C
S11309C470479B6803F04073B3F1807F11D0B3F197
S11309D4007F10D00B4A002B08BF104670470A480A
S11309E470470A4870470A4870470A4870470A48DB
S11309F470470A4870470A48704700BF0040015ACC
S1130A04405DC60000093D00C0EA210180BA8C01A2
S1130A140048E801005A62020024F40080841E00A5
S1130A2440420F00014B1868704700BF841900202E
S1130A3413B500242948019402F07DFA0123042209
S1130A440321204600F0CAFE204602F060FA012287
S1130A54234B0520C3F8442401A902F067FA0028B3
S1130A6439D1204BD3F8F02042F00102C3F8F0202E
S1130A74D3F8FC2042F08072C3F8FC201A4AA3F590
S1130A845D431A60019B194A03F5D52303F2FC4321
S1130A94B3FBF2F3164A013B13610223C2F8F030AC
S1130AA44FF48073C2F804334FF06043114AC3F81F
S1130AB4B02F114AC3F8802ED3F8002E42F480726A
S1130AC4C3F8002EFF2283F82020D3F8002E22F44A
S1130AD48072C3F8002E02B010BD00BFB03B00000A
S1130AE400D0035000ED00E0FF030040F8590D006E
S1130AF4000004E055CEACC50900010030B541F650
S1130B047133124A124DD469D3639368A84204F42E
S1130B14803423F4401306D893600E4AD2F8183272
S1130B2423F002030AE043F4801393600A4B9842CF
S1130B34F3D9084AD2F8183243F00203C2F818323F
S1130B4414B10022014BDA6330BD00BF000003502E
S1130B54005A620200C0075080F0FA0208B5334B11
S1130B6498424FD027D8324B984245D017D8314BAE
S1130B7498423ED00AD838B12F4B984239D041F22A
S1130B84A6312E4802F059F9002034E02C4B984247
S1130B942FD02C4B9842F2D12B4B586E2BE02B4B7D
S1130BA498422CD003F5371303F5D8639842E6D161
S1130BB4254B986F1FE0264B98422FD00CD8254B19
S1130BC4984223D0244B984224D0244B9842D6D123
S1130BD41D4BD3F884000EE0214B984222D003F538
S1130BE4740303F510539842C9D1174BD3F89800F2
S1130BF401E0154B986D08BD134B186FFBE7124BBE
S1130C04586FF8E7104BD3F88000F4E70E4BD3F891
S1130C148800F0E70C4BD3F88C00ECE70A4BD3F8CC
S1130C249000E8E7084BD3F89400E4E780BA8C0119
S1130C34405DC60080841E0040420F00D43800008A
S1130C4400093D00C0CF6A000080E00F0024F400D6
S1130C54007E560380D54302006CDC020048E801A0
S1130C640090D00338B50F4B0546D3F880300C46BA
S1130C7403F00303022B09D0032B0FD00A4841F2DB
S1130C84FF1102F0DAF80023184602E0FFF756FEDB
S1130C940B2305B1286004B1236038BDFFF77EFE41
S1130CA40523F6E700800050D438000038B5164B0D
S1130CB40546D3F820010C4600F00700042818D890
S1130CC4DFE800F01F030B0F1300FFF711FE0423EA
S1130CD405B1286004B1236038BDFFF745FE032342
S1130CE4F6E7FFF75BFE0523F2E7FFF753FE022363
S1130CF4EEE7064841F27C2102F09FF800231846EF
S1130D04E6E70123E4E700BF00800050D438000084
S1130D1473B50024144B0194D3F88031064603F0D0
S1130D240303022B0D460FD0032B12D0012B15D134
S1130D34214601A8FFF7BAFF0D240EB1019A3260CF
S1130D4405B12C6002B070BDFFF728FE05240190A4
S1130D54F3E7FFF71FFE02240190EEE741F2D131DD
S1130D64024802F06AF8E8E700800050D438000032
S1130D7438B5104B0546D3F840310C4603F0030351
S1130D84022B0BD0032B0DD0012B0FD102F04FF803
S1130D94082305B1286004B1236038BDFFF742FE7F
S1130DA40723F6E702F046F80923F2E701230020BB
S1130DB4EFE700BF0080005038B5104B0546D3F868
S1130DC460310C4603F00303022B0BD0032B0DD02C
S1130DD4012B0FD102F02BF8082305B1286004B1CC
S1130DE4236038BDFFF71EFE0723F6E702F022F85E
S1130DF40923F2E701230020EFE700BF008000503D
S1130E0438B5164B0546D3F800020C4600F007002B
S1130E14042819D8DFE800F020030B0F130002F0B4
S1130E2406F8082305B1286004B1236038BDFFF730
S1130E34F9FD0723F6E701F0FDFF0923F2E7FFF7C5
S1130E447DFD0C23800AEDE7054841F28F4101F052
S1130E54F4FF00231846E5E70123E3E7008000508C
S1130E64D438000038B5164B0546D3F808020C46AE
S1130E7400F00700042819D8DFE800F020030B0F62
S1130E84130001F0D4FF082305B1286004B12360E2
S1130E9438BDFFF7C7FD0723F6E701F0CBFF0923AD
S1130EA4F2E7FFF74BFD0C23800AEDE7054841F216
S1130EB4C74101F0C2FF00231846E5E70123E3E735
S1130EC400800050D438000038B5124B0546D3F8DE
S1130ED440320C4603F00303022B0BD0032B0DD03A
S1130EE4012B0FD101F0A3FF082305B1286004B13D
S1130EF4236038BDFFF796FD0723F6E701F09AFF58
S1130F040923F2E7044841F21A4101F096FF002351
S1130F141846EAE700800050D438000038B5104B76
S1130F240546D3F800310C4603F00303022B0BD01F
S1130F34032B0DD0012B0FD1FFF716FD032305B1AD
S1130F44286004B1236038BDFFF76CFD0723F6E77E
S1130F5401F06BFF0623F2E701230020EFE700BF53
S1130F640080005010B503281BD005D8012805D0F3
S1130F74022810D000240CE00F28FBD10B4B1C6F6B
S1130F84C4F30134022C04D140F27D21084801F059
S1130F9454FF601C10BD054BD3F89040C4F30464A3
S1130FA4F7E7024B1C6FC4F38024F2E7008000507F
S1130FB4D43800001FB500230193252874D8DFE832
S1130FC400F013191C262B353A50555A5F64696E88
S1130FD473193F73735519262B26351950266E3A07
S1130FE43A3A3A2626265A5FFFF78EFC0190019876
S1130FF404B010BDFFF7A2FCF8E7FFF785FC044634
S11310040220FFF7AFFFB4FBF0F40194EFE7FFF71E
S113101495FC04460320F4E7FFF790FC0446032000
S1131024FFF7A0FFB4FBF0F46408EEE7002101A885
S1131034FFF76EFEDBE7002101A8FFF737FED6E7D2
S113104402934FF0E0231B695B0705D5FFF776FC99
S11310540290029B0193CAE703A902A8FFF788FE42
S1131064F7E7002101A8FFF783FEC0E7002101A8E8
S1131074FFF7A2FEBBE7002101A8FFF7C1FEB6E714
S1131084002101A8FFF7EEFEB1E7002101A8FFF754
S113109445FFACE7002101A8FFF7E4FDA7E7002121
S11310A401A8FFF711FFA2E74FF46C71014801F0A6
S11310B4C4FE9CE7D438000008B50120FFF77AFF8A
S11310C4BDE808400349884294BF0121022103205A
S11310D400F002B880F0FA0210B503283DD00AD813
S11310E401280AD0022826D040F21631BDE8104067
S11310F4224801F0A2BE0F28F6D14C1E012C06D9B9
S1131104042904D040F2C7211C4801F096FE01F0E2
S1131114CFFE01F0D5FE1A4A136F23F4405343EA79
S113112404331367FFF70AFC0021FFF7E7FCBDE86B
S11311341040FFF7C1BF4C1E1F2C04D940F20A31E2
S11311440E4801F07AFE0E4AD2F8903023F0F85398
S113115443EA0463C2F8903010BD4C1E012C04D938
S11311644FF44471054801F068FE054A136F23F4F3
S1131174806343EA84231367EEE700BFD438000096
S1131184008000501FB50023019325286FD8DFE8A1
S113119400F0136E6E6E6E2D354B50555A5F6469B4
S11311A46E6E3A6E6E506E6E6E6E2D6E4B6E69354B
S11311B43535356E6E6E555A2E4B1B6F03F007038F
S11311C4013B032B0CD8DFE803F0090205070423D1
S11311D401930FE00323FBE70623F9E70223F7E770
S11311E440F2CA41244801F028FE03E0002001A98A
S11311F4FFF78EFD019805B05DF804FB002001A9FA
S1131204FFF754FDF6E702934FF0E0231B695B07F5
S113121405D5FFF793FB0B230393039BD8E703A99B
S113122402A8FFF7A5FDF8E7002001A9FFF7A0FD38
S1131234E0E7002001A9FFF7BFFDDBE7002001A9D7
S1131244FFF7DEFDD6E7002001A9FFF70BFED1E787
S1131254002001A9FFF762FECCE7002001A9FFF7F3
S113126401FDC7E7002001A9FFF72EFEC2E740F203
S11312747D51B7E700800050D4380000024A536A15
S113128423F001035362704700C0075070B505464C
S1131294FFF764FC431E0333044604D940F6CF111C
S11312A4284801F0CAFD284B5A68012A04D1274969
S11312B44A609A699207FCD10020FFF763FF04286F
S11312C403D101F0F5FD01F0FBFD214A24F0407344
S11312D4954228D01F4A954228D01F4CE26812F048
S11312E4060FFBD1A668A360A268534013F4F81F49
S11312F41FD12846FFF702FB0020FFF743FF042811
S11313041ED1FFF71BFB8542044604D240F6282174
S11313140C4801F092FD20460021FFF7EFFBBDE8E5
S11313247040FFF7C9BE43F00073D6E743F08073FF
S1131334D3E740F61721034801F07FFDA660DBE7FD
S113134470BD00BFD438000000C0015000E001505B
S113135440420F0080841E0000000150F8B5036869
S113136404460F2B04D940F67731694801F065FD32
S113137463680F2B04D940F67A31654801F05DFDAA
S1131384A3680F2B04D940F67D31614801F055FD63
S1131394237B0F2B04D94FF438615D4801F04DFDD4
S11313A4637B0F2B04D940F68331594801F045FD82
S11313B4A37B3F2B04D940F68631554801F03DFD0B
S11313C4E37B3F2B04D940F68931514801F035FDC4
S11313D42369032B04D940F68C314D4801F02DFDCB
S11313E46369032B04D940F68F31494801F025FD84
S11313F4E369012B04D940F69231454801F01DFDFF
S11314040020FFF7BFFE032800F0818045F60E0399
S11314140221404AC2F880303F4B9962012103F50E
S113142480539962936DD903FCD4D4E900131B054A
S113143443EA0163E17B94F820500B43217BE77E6C
S113144443EA0143617B6D0143EA0133A17B43EA2F
S1131454811313619169D4E904031B0643EA80638D
S113146401F000410B43A17E94F823000B43217E39
S113147443EA0143617E43EA01239361136AE66903
S113148423F00D0394F8221043EA870366BB136226
S1131494966A94F8213045EA031326F033052B4366
S11314A443F0010393621D4D1A4A936D35EA030315
S11314B4FBD10225184B9D62936D5B00FCD4136928
S11314C4A56823F4700343EA055313614FF0004203
S11314D4114B9A6119B9022203F580539A6278B9BF
S11314E401220F4B9A620BE0334343F00803136267
S11314F4936A23F0330303432B4343EA4103936284
S113150494F824301BB1034B064AC3F88020F8BD79
S1131514D438000000C0005000D000500300014043
S113152400E00050F1A7FFFF014B93F9000070475E
S11315347919002010B543680446072B04D940F6F2
S1131544D351274801F079FCA368032B04D940F64E
S1131554D551234801F071FC2378032B04D940F6B8
S1131564D7511F4801F069FC94F90130002B04DAC7
S113157440F6D9511A4801F060FC4FF4D1510220CD
S1131584184A6378516218494F2B48604FF00100A0
S113159428BF4F2301F5805148601169C903FCD465
S11315A4217843EA01235361D4E901131B0143EA7B
S11315B40123617B0B43217B43EA41039360E37B77
S11315C4A17B1B0143EA4113617C0B43217C43EA65
S11315D441035360A37C13B16FF4D153536210BD20
S11315E4D43800000000025000100250014B18804F
S11315F4704700BFEE190020014B1880704700BFEC
S1131604EC19002010B5454B0446984265D03BD8EC
S1131614A3F5B703A3F5586398425AD02DD8404B89
S113162498424AD013D8002863D041F2C9113D48E6
S113163401F003FC40F673713A4801F0FEFB384BA9
S11316449C4269D0384B9C4258D1002332E0364B3B
S1131654984226D0354B9842E7D1354BD3F8A04075
S1131664621E033224F0407404D940F673712D4889
S113167401F0E3FB2F4A946010BD2F4B9842D4D160
S11316842B4BD3F8BC40EBE72C4B984229D02C4B82
S113169498422AD02B4B9842C7D1254BD3F8C84043
S11316A4DEE7234BD3F8A040621E033224F04074D7
S11316B42CD8234643F08074DCE71D4BD3F8A040B8
S11316C4621E033224F040741AD8234643F0007493
S11316D4D0E7174BD3F8B840C2E7154BD3F8C04052
S11316E4BEE7134BD3F8CC40BAE7114BD3F8D04040
S11316F4B6E740F673710B4801F09FFB0024B9E789
S113170440F67371074801F098FBDEE740F6737105
S1131714044801F092FBCCE70023D7E7C0EA210197
S113172440420F00D438000080841E0000093D00AC
S11317340080E00F0040015A0024F4000048E8014E
S1131744005A620280BA8C01034A0179D36E23F0F1
S113175430030B43D36670470040005038B5032868
S113176404460D4604D80B4B1B5CCB40DB0704D466
S113177440F22D41084801F060FB30220123544318
S113178441F2100204F1A044AB4004F57034A350B8
S113179438BD00BFF03900003239000038B50328E1
S11317A404460D4604D80B4B1B5CCB40DB0704D426
S11317B440F2FE31084801F040FB30220123544337
S11317C442F2100204F1A044AB4004F57034A35077
S11317D438BD00BFF039000032390000F8B50328E1
S11317E404460D4616461F4604D81C4B1B5CCB40CE
S11317F4DB0704D44FF4B071194801F01EFB26B181
S113180429462046CFB1FFF7A9FF04EB4403072D73
S11318144FF00F014FEA031312D8A80006FA00F29E
S113182481401048184401F063FBAEB929462046B0
S113183477B1BDE8F840FFF791BFFFF7AFFFE4E7E6
S1131844A5F10800800006FA00F281400648E9E7A1
S1131854BDE8F840FFF7A2BFF8BD00BFF0390000AF
S11318649139000004C003500CC0035010B5044661
S113187418B991211B4801F0E0FA23781B0613F0F0
S1131884604F03D09221174801F0D7FAE3780F2B65
S113189403D9A321134801F0D0FA0122124B1520D5
S11318A45A60227812069A606178A27842EA014268
S11318B49A61FF229A6200229A631A644FF00042EA
S11318C45A654FF0FF3203F500531A6500F060FBCC
S11318D41520E17800F06AFBBDE81040152000F003
S11318E43DBB00BFF4390000000004502DE9F04171
S11318F40126C3B2072805460C46174606FA03F622
S113190403DDEC21374801F098FA1CB9ED21354880
S113191401F093FA236823F47C1323F00F031BB11F
S1131924F021304801F089FAA37A1B0413F47C0FE4
S113193404D040F209112B4801F07FFAE37A1B0525
S113194413F07E6F04D040F20B11264801F075FAAF
S1131954237B5B0513F0FE5F04D040F20D11214894
S113196401F06BFA204BDFF888801E65226803F5CA
S1131974005343F82520302202FB0585637B27F0BE
S113198403072B66E37AA27A1B0543EA0243227B0C
S113199443EA4253EB652F6701F057FA134B5E6534
S11319A4237A23B1D8F840303343C8F84030637AFB
S11319B423B1D8F838303343C8F838302279A379BE
S11319C443EA0243084A93616179E37943EA0143B0
S11319D406498B61064B56639E64BDE8F04101F0F1
S11319E43ABA00BFF4390000002004500010045037
S11319F400000450054B5B69C3F38512827003F045
S1131A043F021B0B42700370704700BF00C00750B5
S1131A14094B98420DD003F58043984209D003F54D
S1131A248043984205D003F58043C31A5842584171
S1131A3470470120704700BF0080045038B5054644
S1131A440C46FFF7E5FF18B9B4211F4801F0F5F976
S1131A54284601F05DFA012205F500531A6323793F
S1131A6461881B0243EA8143A17A0B43617843EA08
S1131A748113E17A43EAC113217B43EA4113617B75
S1131A8443EA0113A17B43EAC103E17B43EAC12393
S1131A94A17943EA0143E17943EA41436B6005F5E3
S1131AA480531A6322780AB90223EB6000236B6221
S1131AB46379217A1B0143EA8103617A0B43AB60A6
S1131AC40AB10123EB6038BDB13A00000D4B9842D2
S1131AD408D1A3F50033C3F88411C36D43F0800324
S1131AE4C3657047084B984204D1A3F51033C3F877
S1131AF49411F2E7054B984204BFA3F52033C3F8CD
S1131B04A411EAE70080055000C005500000065007
S1131B14F8B507460C461D4616464AB94FF4A1715A
S1131B24314801F08AF924B1402D08D1062327E075
S1131B3419B90320FFF73EFA0446402D42D0402D44
S1131B4409D87DB1202D17D040F28911BDE8F840A1
S1131B54254801F072B9602DF6D1B6EB940F3CD848
S1131B6404230DE0B6EB141F04D94FF4BA711E48D4
S1131B7401F063F9102303E0B6EBD40F1CD8082357
S1131B845E43730803EB4413B3FBF6F3174E203B95
S1131B94B6EBC30F4FEAC30404D24FF4D071124816
S1131BA401F04BF9BB68344023F06003BB60BB68AD
S1131BB41D43BD60FC61F8BD40F279110A4801F08F
S1131BC43CF9DCE70623B4FBF3F3B342AED24FF49F
S1131BD4BF71054801F031F9A8E740F283110248C6
S1131BE401F02BF9BCE700BF113B0000F8FF7F00B4
S1131BF410B51B4B044698420CD003F5804398421D
S1131C0408D003F58043984204D040F24241154879
S1131C1401F013F9012204F580535A6040F6AA63D3
S1131C2441F20502636100230F49A360E365E260A6
S1131C3404F500522361E361E36491640849A365F4
S1131C448C4203D123650023636506E007498C4273
S1131C54F8D001F580418C42F4D00123536010BDC7
S1131C6400800550113B0000FFFF010000C0055037
S1131C7470B5444B044698420D460CD003F580439A
S1131C84984208D003F58043984204D040F2FD21E1
S1131C943D4801F0D2F82046FFF7AAFF012304F5DA
S1131CA480567360AB7C1BB1A36843F08043A3608C
S1131CB4EB7C1BB12046297DFFF708FF2A8A6B7B46
S1131CC420461343EA891343E3602B7BD5E90112CD
S1131CD4FFF71EFF6B7D1BB1A36843F48033A3603D
S1131CE4AB7D1BB1A36843F40043A360EB7D2A7E60
S1131CF41B07120502F4E00203F0E0431343A36557
S1131D04697E204A8B1E012B204B1DD8944217D088
S1131D1402F58042944215D002F5804294420CBFED
S1131D2402224FF0FF3203EB4213022041F2AC5281
S1131D340329985020D10423F3652B78636170BD83
S1131D440022F0E70122EEE7944211D0104A9442B3
S1131D5410D002F5804294420CBF02224FF0FF32AD
S1131D6403EB4213022042F2AC5201299850E1E7FA
S1131D740022F5E70122F3E7042204F50053DA65AF
S1131D84DBE700BF00800550113B000000C0035096
S1131D9400C0055030B58BB06D46604C0FCC0FC5F8
S1131DA454F8043B68462B604FF07E6393F89C30F0
S1131DB46D46FF2B08BF25238DF80130FFF7BAFBCE
S1131DC43220FFF713FC0FCC0FC50FCC0FC594E8DA
S1131DD4030085E80300524BD3F84C21110340F16E
S1131DE48380A3F5FE431C884FF6FF739C4208BF0F
S1131DF481248DF81940FFF797FB044484F3080405
S1131E0448488DF81840FEF7B5FD6846FFF7A6FA72
S1131E143220FFF7F1FB444C4448FFF737FA4448B7
S1131E24FFF7F0FB01F050F8236F002023F00703C1
S1131E3443F002032367236F23F4505343F4806372
S1131E44236701F048F83B4BD3F8FC20D2014FD46C
S1131E54D4F8803023F0030343F00203C4F8803041
S1131E64314BD3F8202122F0070242F00102C3F8D7
S1131E742021D3F8802122F0030242F00102C3F8A6
S1131E848021D3F8402122F0030242F00202C3F875
S1131E944021D3F8602122F0030242F00202C3F885
S1131EA46021D3F8402222F0030242F00202C3F874
S1131EB44022D3F8002222F0070242F00202C3F8BF
S1131EC40022D3F8082222F0070242F00202C3F8E7
S1131ED40822FFF7D3F94FF0E0220020136963F0DE
S1131EE4040313610BB030BDD3F85041E4B280E76E
S1131EF4D3F8FC2022F08072C3F8FC20D4F88020AC
S1131F0422F0030242F00202C4F88020D3F8FC2039
S1131F1442F08072C3F8FC20A2E700BF743B0000C7
S1131F240080E00F00F049020080005000B4C404B3
S1131F34C0EA210100ED00E013B50024064A684616
S1131F44536F43F00103536700948DF80440FFF783
S1131F54FBFB204602B010BD0040005010B53D28E4
S1131F64044608D801236109074A04F01F04A34066
S1131F7442F8213010BD4FF48A71044800F05DFF2B
S1131F84002CF7DBEEE700BF00E100E0B43B000007
S1131F94002808DB01224309034900F01F008240A2
S1131FA4603341F82320704700E100E038B500F1C4
S1131FB410034D2B04460D4604D94FF4E1710D482A
S1131FC400F03BFF1E2D04D940F2C311094800F070
S1131FD434FF002CACBF04F16044074B4FEA0515F1
S1131FE4EDB2ABBF04F5614404F00F0484F800536C
S1131FF41D5538BDB43B000014ED00E00346054A0A
S11320040549106803448B428CBF4FF0FF301360C2
S1132014704700BF8C1900200080012008B5064BCE
S1132024044613B10021AFF30080044B1B6803B1D1
S11320349847204600F015FF00000000941100208A
S113204438B5104B04461D682B6BB3B9182000F047
S11320540DFA0246286320B90B4B46210B4800F0C5
S11320649DF90B490B4BC0E900130B4B0021836012
S11320740B2383810120C2E904012B6B00221C6120
S11320845A6138BD9C1900203C3C0000533C0000BC
S11320940E33CDAB34126DE6ECDE0500164B10B5F1
S11320A41C68236BB3B9182000F0E0F902462063DE
S11320B420B9124B5221124800F070F91149124B05
S11320C4C0E90013114B002183600B238381012099
S11320D4C2E90401216B0E480B694C690D4A58434B
S11320E402FB0400A3FB0232013340EB0200C1E90A
S11320F4043020F0004010BD9C1900203C3C00003A
S1132104533C00000E33CDAB34126DE6ECDE050017
S11321142DF451582D7F954C002310B5044683604B
S1132124818119464366C28108228361C0E9003370
S1132134C0E904335C3000F0CCFF0D4B24626362CD
S11321440C4BA3620C4BE3620C4B23630C4B9C427D
S113215406D003F16802944202D0D0339C4205D1E4
S113216404F15800BDE8104000F0BBBF10BD00BF2F
S11321745130000073300000AB300000CF30000059
S11321845C100020024A0349034800F041BF00BF29
S1132194901900208D330000A019002041680C4BD5
S11321A4994210B5044601D001F0EEF8A168094B38
S11321B4994202D0204601F0E7F8E168064B9942BF
S11321C404D02046BDE8104001F0DEB810BD00BFC5
S11321D45C100020C41000202C11002010B50B4BFF
S11321E404210B4C0B4A20461A600022FFF794FF8B
S11321F404F1680001220921FFF78EFF04F1D000E5
S113220402221221BDE81040FFF786BF941100207A
S11322145C10002089210000014800F063BF00BF66
S11322247B190020014800F05EBF00BF7B19002029
S113223410B50446FFF7F0FF236A1BB1BDE8104054
S1132244FFF7F0BF044B2362044B1B68002BF5D14A
S1132254FFF7C4FFF2E700BFA1210000941100209E
S11322640CB4184B30B50C1E9DB01D6808DA8B23D2
S11322744FF0FF302B601DB0BDE8304002B0704712
S11322844FF402730290069002A9ADF8143014BFFF
S113229404F1FF332346209A2846049307934FF608
S11322A4FF73ADF8163021AB019300F08DF9431C94
S11322B4BCBF8B232B60002CDDD0029B00221A7040
S11322C4D9E700BF9C19002038B50023054D044606
S11322D408462B6000F0C2FD431C02D12B6803B1F5
S11322E4236038BD9811002038B50446064D0846CD
S11322F4114600222A601A4600F0BDFD431C02D197
S11323042B6803B1236038BD9811002038B5044606
S1132314064D0846114600222A601A4600F0ADFD17
S1132324431C02D12B6803B1236038BD98110020EB
S113233438B50446064D0846114600222A601A465A
S113234400F09DFD431C02D12B6803B1236038BD0A
S11323549811002070B50D4D00260D4C641BA4107B
S1132364A64209D10B4D00260B4C01F0A7F9641BBE
S1132374A410A64205D170BD55F8043B0136984714
S1132384EEE755F8043B01369847F2E7F0190020CC
S1132394F0190020F0190020F41900201FB5144688
S11323A41A46094B05461B68D86854B9074B1C46A2
S11323B400910749CDE901342B4600F02DFB01F0CF
S11323C440F8044BF4E700BF9C1900208538000052
S11323D4B93C0000AC3C000038B50546002941D0A6
S11323E451F8043C0C1F002BB8BFE41800F0E0F8CB
S11323F41D4A136833B9636014602846BDE8384045
S113240400F0DCB8A34208D9206821188B4201BF2C
S113241419685B6809182160EDE71A465B680BB11B
S1132424A342FAD911685018A0420BD12068014480
S1132434501811608342E0D118685B680844536003
S11324441060DAE702D90C232B60D6E72068211840
S11324548B4202BF19685B680918636008BF216076
S11324645460CAE738BD00BFA0110020024B0146E6
S1132474186800F025B800BF9C19002070B50F4EF1
S11324840C460546316811B900F0D8FA306021468B
S1132494284600F0D3FA431C03D14FF0FF342046FE
S11324A470BDC41C24F00304A042F8D0211A2846A9
S11324B400F0C4FA0130F2D1EFE700BF9C11002010
S11324C42DE9F041CD1C064625F0030508350C2DF5
S11324D438BF0C25002D01DBA94204D90C23336039
S11324E40020BDE8F081314F00F062F83B681C46DF
S11324F444BB29463046FFF7C1FF431C044650D170
S11325043C682146002941D1002C44D0236830463C
S113251404EB030800F092FA80453CD1216830466C
S11325246D1A2946FFF7AAFF013034D023682B44DF
S113253423603B68002B36D05A68A24229D100227A
S11325445A600EE02268521B1DD40B2A16D9611955
S1132554A342256018BF5960636808BF396062519B
S11325644B60304600F02AF804F10B00231D20F0E0
S11325740700C21AB5D01B1AA350B2E7A34262687B
S1132584DED13A60EDE723466468B1E70C46496856
S1132594B8E71346CEE70C233046336000F00EF858
S11325A49EE70560DDE75B60FFDE00BFA01100204D
S11325B4014800F097BD00BF7A190020014800F0DB
S11325C492BD00BF7A1900202DE9F04F98468B89FB
S11325D49DB007461B060D46144610D50B6973B906
S11325E44021FFF76DFF2860286130B90C233B605C
S11325F44FF0FF301DB0BDE8F08F40236B61002322
S1132604CDF80C804FF00109DFF8A0810993202351
S11326148DF8293030238DF82A3023469A4613F84E
S1132624012B0AB1252AF9D1BAEB040B0BD05B4672
S113263422462946384600F057FD013000F0A780B1
S1132644099A5A4409929AF80030002B00F09F80AA
S113265400234FF0FF320AF1010A049307938DF823
S113266453301A93CDE90523544605224F4814F8F0
S1132674011B00F0CBFE049AD8B9D00644BF202332
S11326848DF85330110744BF2B238DF853309AF837
S113269400302A2B15D0079A544600204FF00A0C18
S11326A4214611F8013B303B092B4BD9B0B10792B9
S11326B414E0A0EB0803A24609FA03F313430493BA
S11326C4D2E7039B191D1B68002B0391BBBF5B421C
S11326D442F0020207930793B8BF049223782E2B87
S11326E40AD163782A2B32D1039B02341A1D1B6846
S11326F443EAE37303920593DFF8C0A0032221782D
S1132704504600F083FE38B1A0EB0A004022049B3B
S1132714013482401343049314F8011B0622244811
S11327248DF8281000F072FE002836D0214B1BBB14
S1132734039B073323F0070308330393099B3344B0
S113274409936AE70CFB02320C460120A8E7002334
S113275401344FF00A0C19460593204610F8012B56
S1132764303A092A03D9002BC6D00591C4E70CFBDF
S1132774012104460123F0E703AB2A4604A93846A1
S113278400930D4BAFF30080421C0646D6D1AB89AF
S11327945B063FF52DAF09982CE703AB2A4604A941
S11327A438460093044B00F00BF8EDE7E83C0000D6
S11327B4F23C000000000000ED300000EE3C00009C
S11327C42DE9FF470F7E914680460C46782F9A46A2
S11327D40C9E01F1430207D8622F0AD8002F00F09F
S11327E4DD80582F00F0C38004F1420684F842705F
S11327F43AE0A7F16303152BF6D801A151F823F0AD
S11328045D28000071280000ED270000ED2700007A
S1132814ED270000ED27000071280000ED270000DB
S1132824ED270000ED270000ED27000087290000B4
S1132834FF2800003F290000ED270000ED270000D9
S1132844A9290000ED270000FF280000ED2700005F
S1132854ED2700004729000033681A1D1B68326005
S113286404F1420684F842300123A8E03168236865
S1132874081D30601E0601D50D6803E05D06FBD516
S1132884B1F90050002D616878DA2D200029A16087
S113289484F843002DDA6D425D480A231646B5FBDD
S11328A4F3F103FB1157C75D06F8017D2F460D466E
S11328B4BB42F4D9082B0BD12368DF0708D523695D
S11328C461689942DEBF302306F8013C06F1FF3605
S11328D4921B22614B4603AA21464046CDF800A030
S11328E400F05DFC01306FD14FF0FF3004B0BDE85F
S11328F4F08723F004032360CDE7216833680806D6
S113290453F8045B02D4490648BFADB26F2F336059
S11329143F4814BF0A230823002184F8431066683F
S1132924002EA660BADB216821F004012160002D89
S1132934B4D1002EB2D11646BCE7236843F0200379
S1132944236078273348236884F845701F06316868
S113295451F8045B02D45F0648BFADB23160D907B5
S113296444BF43F0200323601DB11023D4E7284857
S1132974E9E7236823F020032360F6E724480A23C5
S1132984CDE733682568181D616930602E061B681D
S113299401D5196002E06806FBD5198000231646A8
S11329A4236197E7336800211A1D32601E68626848
S11329B4304600F02BFD08B1801B6060636823611E
S11329C4002384F8433085E7236932464946404668
S11329D4D047013088D023689B0714D4E068039B54
S11329E49842B8BF184681E7012332464946404617
S11329F4D04701303FF478AF0135E36803995B1A9B
S1132A04AB42F1DCEAE7002504F11906F5E700BF5F
S1132A14F93C00000A3D00000EB403B503AB0146C3
S1132A24054853F8042B0068019300F017F802B02A
S1132A345DF804EB03B070479C19002038B50023FB
S1132A44054D044608462B60FFF7D8FA431C02D10F
S1132A542B6803B1236038BD981100202DE9F04F91
S1132A640D469DB014469846064618B1036A0BB940
S1132A74FFF7DEFB6B6ED90705D4AB899A0502D444
S1132A84A86D00F02FFBAB891B0701D52B699BB9FB
S1132A942946304600F0FAF870B16B6EDC0704D5B1
S1132AA44FF0FF301DB0BDE8F08FAB899805F7D423
S1132AB4A86D00F018FBF3E70023CDF80C804FF069
S1132AC40109DFF8B481099320238DF829303023D8
S1132AD48DF82A3023469A4613F8012B0AB1252A85
S1132AE4F9D1BAEB040B0BD05B4622462946304697
S1132AF400F0F3FC013000F0A780099A5A440992CB
S1132B049AF80030002B00F09F8000234FF0FF322E
S1132B140AF1010A049307938DF853301A93CDE90B
S1132B24052354460522544814F8011B00F06EFC96
S1132B34049AD8B9D10644BF20238DF8533013071F
S1132B4444BF2B238DF853309AF800302A2B15D028
S1132B54079A544600204FF00A0C214611F8013B11
S1132B64303B092B4BD9B0B1079214E0A0EB080316
S1132B74A24609FA03F313430493D2E7039B191DF2
S1132B841B68002B0391BBBF5B4242F00202079314
S1132B940793B8BF049223782E2B0AD163782A2B87
S1132BA432D1039B02341A1D1B6843EAE373039274
S1132BB40593DFF8D4A003222178504600F026FCC4
S1132BC438B1A0EB0A004022049B01348240134331
S1132BD4049314F8011B062228488DF8281000F0E9
S1132BE415FC00283FD0264B1BBB039B073323F063
S1132BF4070308330393099B3B4409936AE70CFBDB
S1132C0402320C460120A8E7002301344FF00A0CD9
S1132C1419460593204610F8012B303A092A03D9A2
S1132C24002BC6D00591C4E70CFB01210446012303
S1132C34F0E703AB2A4604A930460093114BAFF3E3
S1132C4400800746781CD6D16B6ED90705D4AB89AE
S1132C549A0502D4A86D00F046FAAB895B063FF5E9
S1132C641FAF09981EE703AB2A4604A93046009314
S1132C74044BFFF7A5FDE4E7E83C0000F23C000048
S1132C8400000000DF340000EE3C000038B5294B9E
S1132C9405460C46186818B1036A0BB9FFF7C8FA5D
S1132CA4B4F90C30190722D4DA0607D409222A60AD
S1132CB443F040034FF0FF30A38133E0580712D5AB
S1132CC4616B41B104F14403994202D02846FFF7F1
S1132CD483FB00236363A38923F02403A3810023D8
S1132CE4636023692360A38943F00803A3812369F0
S1132CF44BB9A38903F42073B3F5007F03D02146B1
S1132D04284600F091FCB4F90C3013F001020AD007
S1132D140022A26062695242A261226942B913F09C
S1132D248000C5D138BD990758BF6269A260F4E731
S1132D340020F7E79C190020024B0146186800F0B4
S1132D441CBC00BF9C19002038B50023064D044662
S1132D54084611462B6000F08BF8431C02D12B6803
S1132D6403B1236038BD00BF9811002038B5002397
S1132D74064D0446084611462B6000F073F8431CC4
S1132D8402D12B6803B1236038BD00BF9811002021
S1132D9438B50023054D044608462B6000F066F858
S1132DA4431C02D12B6803B1236038BD9811002061
S1132DB47047704700F01AB808B5FDF739FEBDE84E
S1132DC4084000F01CB800F00FB870477047704713
S1132DD470477047704708B5042201231146032045
S1132DE4FEF7FCFC002008BDFFF7F5BF08B504227C
S1132DF4002311460320FEF7F1FC002008BD08B5AA
S1132E04082000F03EF8BDE80840082000F044B86B
S1132E14FEE74AB110B5002350F8234041F823409B
S1132E2401339342F8D110BD7047002070474FF42A
S1132E34004070474FF47A707047FEE7EFF3108058
S1132E4472B6704700B962B67047EFF3118030234D
S1132E5483F31188704780F3118870474FF0FF3073
S1132E647047FEE700207047012070470120704737
S1132E744FF0FF3070470020704700207047002057
S1132E8470474FF060420123D2F8001E83400B4385
S1132E940020C2F8003E70474FF060410122D1F88F
S1132EA4003E824023EA02030020C1F8003E70473A
S1132EB408B5FDF755FDBDE808400021FDF71EBE29
S1132EC402210320FEF708B908B5FFF7F1FFBDE8B6
S1132ED40840FFF7F5BF10B50446FDF72FFD0021A8
S1132EE4FDF70CFE1CB1BDE81040FEF7E5B810BDBB
S1132EF470B5054614460E46FFF7A0FF2B685C40E8
S1132F0434405C402C60BDE87040FFF79BBF7047C1
S1132F14036BDA0702D503695B06F9D47047836946
S1132F245B06FCD5C163704700F008B809B100F032
S1132F3407B822207047012100F043B800207047ED
S1132F4470B506460D46FFF780FF04461C2E35D89F
S1132F54DFE806F00F18341C1E20342224343434E1
S1132F642628342A2C2E303434343434343434344F
S1132F743200FDF7C9FC002628602046FFF76BFFEA
S1132F84304670BD0120FEF715F8F4E70320FAE794
S1132F940420F8E70C20F6E70220F4E70620F2E721
S1132FA40720F0E70820EEE70520ECE70920EAE72C
S1132FB40A20E8E70D20E6E71020E4E700202126B4
S1132FC4DAE700207047FEF7E5BE10B56FF004049D
S1132FD4204605210134FEF7E9FF3D2CF8D110BD4C
S1132FE408B5FDF7B5FBFFF7E7FEFFF7ECFEFFF7C7
S1132FF4ECFEBDE80840FFF7E9BE08B5FFF7E7FEBD
S1133004FFF7E6FEFFF7E5FEBDE80840FFF7E2BE82
S11330142DE9F8430746884614460026D4E9019569
S1133024B9F1010905D52468002CF7D13046BDE86F
S1133034F883AB89012B07D9B5F90E30013303D0DA
S113304429463846C04706436835E9E710B50C46B7
S1133054B1F90E10FFF75AF90028ABBF636DA389C9
S11330641B1823F48053ACBF6365A38110BD2DE901
S1133074F0411F468B8905460C46DB05164605D5EB
S113308402230022B1F90E10FFF72EF9A389324668
S1133094B4F90E10284623F48053A3813B46BDE8BB
S11330A4F041FFF745B910B50C46B1F90E10FFF71E
S11330B41BF9431CA38915BF606523F4805343F4AF
S11330C48053A38118BFA38110BDB1F90E10FFF77B
S11330D4FBB802440346934200D1704703F8011B32
S11330E4F9E77047704770472DE9F0471F468E682B
S11330F482460C46BE4290460B682DD8B1F90C208A
S113310412F4906F26D06569096905EB4505A3EBB4
S113311401097B1C05EBD5754B446D109D4238BFEA
S11331241D46530527D52946FFF7CAF9064660B359
S11331344A46216900F078F9A38923F4906343F0A3
S11331448003A38126614E446561A5EB09052660CD
S11331543E46A560BE4200D93E46324641462068FA
S113316400F03AF9A36800209B1BA360236833444E
S11331742360BDE8F0872A4600F06AF90646002871
S1133184E0D121695046FFF727F90C234FF0FF30B3
S1133194CAF80030A38943F04003A381E9E72DE989
S11331A4F047164698468A6807460B690C46DDF8CC
S11331B420909342B8BF1346336091F843200AB178
S11331C4013333602368990642BF336802333360A2
S11331D4256815F0060506D104F1190AE368326876
S11331E49B1AAB422BDC94F843302268003B18BF93
S11331F40123920630D404F1430241463846C847B9
S1133204013023D023681A3454F80A2C03F006033B
S1133214042B0ABF54F80E5C002533684FF00006F3
S113322408BFED1A54F8123C08BF25EAE575934229
S1133234C4BF9B1AED18B5421AD1002008E001233B
S1133244524641463846C847013003D14FF0FF3057
S1133254BDE8F0870135C1E7E1185A1C3020023378
S1133264224481F8430094F8451082F84310C2E7DD
S11332740123224641463846C8470130E6D0013688
S1133284D9E7B1F90C202DE9F041170705460C469E
S113329456D44B68002B02DC0B6C002B3DDDE66A34
S11332A4002E3AD0002312F480522F68216A2B6036
S11332B425D0626DA389580705D56368D21A636B58
S11332C40BB1236CD21A216A0023E66A2846B0475C
S11332D4411C24D00023636023692360A389DA0496
S11332E400D56065616B2F60B9B104F14403994260
S11332F402D02846FFF770F8002363630DE001232E
S11333042846B047461C0246D4D12B68002BD1D0A2
S11333141D2B01D0162B2AD12F6000202EE02A6801
S1133324B4F90C3042B11D2A01D0162A21D100234C
S1133334636023692360D5E7626022692260CEE773
S11333440F69002FE9D093070E680F600CBF4B6917
S11333540023A6EB07088B60B8F1000FDDDD4346BC
S11333643A46216A2846A66AB047002808DCB4F91C
S11333740C3043F040034FF0FF30A381BDE8F081EB
S11333840744A8EB0008E7E738B50B6905460C4683
S113339413B90025284638BD18B1036A0BB9FEF7E2
S11333A447FFB4F90C30002BF3D0626ED00704D479
S11333B4990502D4A06DFFF795FE28462146FFF730
S11333C460FF636E0546DA07E4D4A3899B05E1D460
S11333D4A06DFFF788FEDDE7884210B501EB020417
S11333E402D98442234607D8431EA14208D011F8C7
S11333F4012B03F8012FF8E7024401468A4200D165
S113340410BD13F8014D02F8014DF7E7C9B20346A4
S1133414024410B59342184601D1002003E0047815
S113342401338C42F6D110BD0A44431E914200D1AB
S1133434704710B511F8014B914203F8014FF9D1CB
S113344410BD062008B5FFF777FC0120FFF709FD3E
S11334542DE9F041804615460C4621B91146BDE8D4
S1133464F041FFF72DB82AB9FEF7B6FF0024204631
S1133474BDE8F08100F0ABF88542064602D8B5EB0E
S1133484500FF4D829464046FFF71AF80746002897
S1133494ECD0B5422A46214628BF3246FFF7C4FF82
S11334A4214640463C46FEF797FFE0E79368013B1C
S11334B4002B936010B408DA9469A34201DB0A294F
S11334C403D15DF8044B00F01AB81368581C10605B
S11334D4084619705DF8044B7047F8B506460F4664
S11334E41446D518AC4201D1002007E03A4614F83A
S11334F4011B3046FFF7DAFF431CF3D1F8BDF8B5DE
S11335040E461446054618B1036A0BB9FEF790FE3D
S1133514A369A360A3891A0701D5236943B9214682
S11335242846FFF7B3FB18B14FF0FF373846F8BD10
S11335342368F6B222693746981A6369834205DC24
S113354421462846FFF720FF0028EDD1A368013B5C
S1133554A36023685A1C22601E70431C62699A4249
S113356404D0A389DB07E1D50A2EDFD121462846FE
S1133574FFF70AFF0028D9D0D6E71F2938B5054636
S11335840C4604D9162303604FF0FF3038BDC26BD8
S113359412B152F821304BB9284600F016F82246ED
S11335A401462846BDE83840FFF7CEBB012B0AD0BC
S11335B4591C03D1162303600120E7E700212046A8
S11335C442F8241098470020E0E7FFF74DBC51F877
S11335D4043C181F002BBCBF0B58C018704770B5AF
S11335E40C46B1F90E1096B0154600291E460CDAA5
S11335F4A389002113F0800F14BF40234FF4806388
S1133604002031602B6016B070BD6A46FFF7AEFB34
S11336140028EDDB019901F47041A1F500535942EE
S113362459414FF48063EBE78B89F7B59D07064650
S11336340C4607D504F14703236023610123636126
S113364403B0F0BD01AB6A46FFF7C9FF009F05460E
S113365430463946FEF734FF48B9B4F90C309A05BC
S1133664EED423F0030343F00203A381E2E7A38926
S1133674206043F08003A381019BC4E904075BB188
S1133684B4F90E103046FFF783FB28B1A38923F065
S1133694030343F00103A381A3891D43A581CFE759
S11336A40000000000000000000000000000000012
S11336B4000000000000000000000000F8B500BF96
S11336C4F8BC08BC9E467047F8B500BFF8BC08BCFB
S11336D49E4670472563203A2025640D0A00456DF3
S11336E47074790D0A00643A5C73696C69636F6E73
S11336F46C61625C73696D706C69636974795F731E
S1133704646B5F73756974655F76323032345F3627
S11337145F322D3030315C73696D706C6963697428
S1133724795F73646B5F355C706C6174666F726D22
S11337345C656D6C69625C696E635C656D5F74691C
S11337446D65722E68000D0A3D3D3D2053656C6520
S11337546374204D6F6465203D3D3D0D0A00313A8C
S1133764204D6178204672657175656E63790D0A22
S113377400323A20444D412042656E63686D6172A3
S11337846B0D0A00333A20506F6C6C65642055410C
S113379452542042656E63686D61726B0D0A004574
S11337A46E7465722063686F6963653A20000D0A5C
S11337B42D2D2D204D6178204672657175656E63DB
S11337C479204D6F6465202D2D2D0D0A3E20000DAA
S11337D40A2D2D2D20444D412042656E63686D6190
S11337E4726B204D6F6465202D2D2D0D0A005479C4
S11337F4706520312C322C33202B20456E74657275
S113380420746F20746573742031302F3130302F5D
S1133814313030302062797465730D0A3E20000D16
S11338240A2D2D2D20506F6C6C6564205541525423
S11338342042656E63686D61726B204D6F64652010
S11338442D2D2D0D0A000D0A496E76616C69642EC6
S11338542044656661756C743A204D617820467223
S1133864657175656E63790D0A3E2000444D413AD5
S113387420256C752075732028256C752042290D2C
S11338840A00506F6C6C65643A20256C752075735E
S11338942028256C752042290D0A0054797065206E
S11338A4312C322C33206F6E6C790D0A0000000029
S11338B41E000003050000000000000000C2010017
S11338C400050000001000000000000000000000DB
S11338D4443A2F53696C69636F6E4C61622F736948
S11338E46D706C69636974795F73646B5F73756914
S11338F474655F76323032345F365F322D30303166
S11339042F73696D706C69636974795F73646B5F39
S1133914352F706C6174666F726D2F656D6C69629E
S11339242F7372632F656D5F636D752E6300643A44
S11339345C73696C69636F6E6C61625C73696D70EE
S11339446C69636974795F73646B5F7375697465B7
S11339545F76323032345F365F322D3030315C730F
S1133964696D706C69636974795F73646B5F355CEA
S1133974706C6174666F726D5C656D6C69625C69B0
S11339846E635C656D5F6770696F2E6800443A2FDF
S113399453696C69636F6E4C61622F73696D706CEB
S11339A469636974795F73646B5F73756974655F64
S11339B476323032345F365F322D3030312F7369D2
S11339C46D706C69636974795F73646B5F352F70B0
S11339D46C6174666F726D2F656D6C69622F73729E
S11339E4632F656D5F6770696F2E63007F033F1FEC
S11339F4443A2F53696C69636F6E4C61622F736927
S1133A046D706C69636974795F73646B5F737569F2
S1133A1474655F76323032345F365F322D30303144
S1133A242F73696D706C69636974795F73646B5F18
S1133A34352F706C6174666F726D2F656D6C69627D
S1133A442F7372632F656D5F6C646D612E63006404
S1133A543A5C73696C69636F6E6C61625C73696D03
S1133A64706C69636974795F73646B5F737569748B
S1133A74655F76323032345F365F322D3030315CFC
S1133A8473696D706C69636974795F73646B5F35B2
S1133A945C706C6174666F726D5C656D6C69625C9C
S1133AA4696E635C656D5F6275732E6800443A2FBA
S1133AB453696C69636F6E4C61622F73696D706CCA
S1133AC469636974795F73646B5F73756974655F43
S1133AD476323032345F365F322D3030312F7369B1
S1133AE46D706C69636974795F73646B5F352F708F
S1133AF46C6174666F726D2F656D6C69622F73727D
S1133B04632F656D5F74696D65722E6300443A2F8B
S1133B1453696C69636F6E4C61622F73696D706C69
S1133B2469636974795F73646B5F73756974655FE2
S1133B3476323032345F365F322D3030312F736950
S1133B446D706C69636974795F73646B5F352F702E
S1133B546C6174666F726D2F656D6C69622F73721C
S1133B64632F656D5F75736172742E6300000000CA
S1133B740126000004000000000000000001000011
S1133B84000000000B0000000B0000000200000015
S1133B940000202000000000030000008C8C3C0086
S1133BA4000000000000000000000000FFFFFFFF11
S1133BB4443A2F53696C69636F6E4C61622F736965
S1133BC46D706C69636974795F73646B5F73756931
S1133BD474655F76323032345F365F322D30303183
S1133BE42F73696D706C69636974795F73646B5F57
S1133BF4352F706C6174666F726D2F73657276699C
S1133C0463652F696E746572727570745F6D616E2D
S1133C14616765722F7372632F736C5F696E746569
S1133C2472727570745F6D616E616765725F636FE4
S1133C34727465786D2E63005245454E54206D614F
S1133C446C6C6F6320737563636565646564002FCE
S1133C54646174612F6A656E6B696E732F776F721A
S1133C646B73706163652F474E552D746F6F6C636E
S1133C746861696E2F61726D2D31322F7372632FF7
S1133C846E65776C69622D63796777696E2F6E65EB
S1133C94776C69622F6C6962632F7374646C6962F4
S1133CA42F72616E642E63002C2066756E637469D2
S1133CB46F6E3A2000617373657274696F6E2022AB
S1133CC4257322206661696C65643A2066696C65B3
S1133CD420222573222C206C696E652025642573AB
S1133CE425730A00232D302B2000686C4C00656674
S1133CF46745464700303132333435363738394135
S1133D04424344454600303132333435363738394A
S10B3D1461626364656600004E
S10B3D1CA8C4FF7F01000000B0
S10F3D24303D00007C1900201F0000004E
S1133D30C0EA2101C0EA21010080000000F049022C
S1133D40F819002000000000030000005C100020AF
S1133D50A0190020000000005C100020C410002006
S1133D602C110020000000000000000000000000F2
S1133D70000000000000000000000000000000003F
S1133D80000000000000000000000000000000002F
S1133D90000000000000000000000000000000001F
S10F3DA0FFFFFFFFA101000079010000FB
S9030839BB
