:1000000000100020B90500008B2800008B2800009C
:100010008B2800008B2800008B2800008B28000014
:100020008B2800008B2800008B2800008B28000004
:100030008B2800008B2800008B2800008B280000F4
:100040008B2800008B2800008B2800008B280000E4
:100050008B2800008B2800008B2800008B280000D4
:100060008B2800008B2800008B2800008B280000C4
:100070008B2800008B2800008B2800008B280000B4
:100080008B2800008B2800008B2800008B280000A4
:100090008B2800008B2800008B2800008B28000094
:1000A0008B28000011030000D50200008B280000FF
:1000B0008B2800008B2800008B2800008B28000074
:1000C0008B2800008B2800008B2800008B28000064
:1000D0008B2800008B2800008B2800008B28000054
:1000E0008B2800008B2800008B2800008B28000044
:1000F0008B2800008B2800008B2800008B28000034
:100100008B2800008B2800008B2800008B28000023
:100110008B2800008B2800008B2800008B28000013
:100120008B2800008B2800008B2800008B28000003
:040130008B28000018
:100134000348044B834202D0034B03B11847704772
:10014400D4110020D411002000000000064B074900
:10015400C91A891048BF0131491003D0044B0BB1AF
:1001640001481847704700BFD4110020D411002063
:100174000000000010B5064C237843B9FFF7D8FF00
:10018400044B13B10448AFF300800123237010BD66
:1001940060110020000000006C31000008B5054B20
:1001A4001BB105490548AFF30080BDE80840FFF7DF
:1001B400CDBF00BF00000000001000206C31000023
:1001C400A3F5803A704700BF174B002B08BF134BB1
:1001D4009D46FFF7F5FF00218B460F461348144A4E
:1001E400121A02F044FC0E4B002B00D098470D4B22
:1001F400002B00D098470020002104000D000D487A
:10020400002802D00C48AFF3008001F073FF2000F7
:10021400290000F0F9F801F027FF00BF00000800F2
:10022400000000000000000000100020001000206A
:1002340064110020000000000000000000B589B037
:1002440005234FF4E1328DF8043000234FF4A0610C
:10025400CDE902324FF48052CDE904124FF4A022CA
:100264000693ADF81C30084B0848C3F8C4254FF476
:10027400C022C3F8BC25142201A9C3F8AC2501F09F
:1002840061FB09B05DF804FB00C003500080055019
:100294001FB50F2200210DF1010002F0E8FB01233C
:1002A400094C694620468DF8003001F031FA236B81
:1002B400DB0704D440F2B641044802F0F9FA4FF6E1
:1002C400FF73E36104B010BD00800450582D00009A
:1002D40038B545F255520A4C0A4D04F50053C3F89B
:1002E4002024284602F0E3FB29460246064802F091
:1002F40098FA042304F54054C4F8A03038BD00BF74
:1003040000C00350B82D00000080055038B54AF6EF
:10031400AA220A4C0A4D04F50053C3F820242846A7
:1003240002F0C5FB29460246064802F07AFA082381
:1003340004F54054C4F8A03038BD00BF00C00350D9
:10034400CB2D00000080055070B592B024490646BC
:1003540002F095FB044620B104220124214BC3F88A
:10036400A0203046204902F08AFB20B10422002458
:100374001E4BC3F8A02030461D4902F080FB054601
:1003840020B108220125174BC3F8A0203046194993
:1003940002F075FBB0B10822144BC3F8A020DCB9FD
:1003A400154B1A464021009202A8144A01F06EFE31
:1003B40002A802F07CFB02A90246114802F031FABD
:1003C40012B070BD0C4A0F49002C0CBF13460B46EB
:1003D400002D18BF0A46E5E70A4B074AE2E700BFCB
:1003E400DE2D000000D00350E62D000000E0035095
:1003F400EF2D0000F72D0000EB2D0000002E000073
:1004040000800550E32D0000F0B52DED028BB1B056
:10041400002702F014FB3C4602F0B8F99FED288A4D
:10042400FFF736FF02F0E6F9FFF708FF254D264EE9
:1004340002F012FB02F0ABF9284602F099FA84BBF1
:100444000D28776A01D00A2831D104F1C0030DEBDD
:100454000304002304F8643C736ABB4202D203F52C
:100464007F43FF33DB1B07EE903AF8EE677AC7EE63
:10047400887A17EE900A01F09FFD144ACDE9000135
:10048400502103A801F002FE03A802F010FB03A907
:100494000246284602F0C5F917A8FFF755FF0024C5
:1004A400C6E70D28D1D00A28CFD0622CC0D804F1D9
:1004B400C002631C0DEB020404F8640CDCB2B7E761
:1004C40000007A440080055000800450122E000081
:1004D40007B501A801F0F8F89DF80530012B27D1E4
:1004E4001E4A936DDB0313D4536B23F4FF0323F4ED
:1004F400FE4343F4BC1343F4A0635363136B23F42C
:10050400704343F440431363136B43F4E063136396
:100514009DF8043063B94FF000531B68104B1B68FF
:10052400104B1B68104B1B68104B1B68104B1B684F
:10053400104AD2F8803043F00303C2F8803002F04E
:1005440073FA00F023F802F06DFA02F01CFA01F0DD
:100554005DFB03B05DF804EB00F00EB800C0005082
:10056400004000200080002000C000200000012086
:10057400004001200080005008B5034802F00AFA48
:10058400BDE8084002F05AB9AC300000014802F05E
:1005940001BA00BFAC3000000348044A0449121AEF
:1005A400921002F071B900BF340100003401000060
:1005B4006411002008B500F02FF8FFF7EDFF124B8F
:1005C40012498B4212D30020114B12498B4218D38B
:1005D400FFF7FAFD186850F82240586840F82240A6
:1005E400013298688242F5D30C33EAE70022F8E737
:1005F4001C6844F8220001325C68A242F8D3083334
:10060400E4E70022F8E700BF743100008031000005
:10061400803100008031000070B5124B124A134D36
:100624009A60D3F8882005F5005442F47002C3F8A8
:1006340088206FF00102226641F2FF726266022294
:10064400C3F8D020BFF34F8FBFF36F8F4FF4403602
:10065400032001F007FB0320E66001F0E9FA2E61B4
:1006640070BD00BF00ED00E0000000000080004409
:10067400014B1868704700BF68110020014B1860D7
:10068400704700BF68110020084B1B6F03F007037D
:10069400022B04D0032B05D0012B05D0FEE7044B1D
:1006A40018687047034BFBE703487047008000500D
:1006B4006811002070110020002D310108B5FFF7EA
:1006C400E3FF054B1B6FC3F301330133B0FBF3F0BE
:1006D400024B186008BD00BF008000506411002068
:1006E4000048704700B4C404014B1868704700BF49
:1006F40070110020054B1860054B1B6F03F00703B6
:10070400032B01D1FFF7DABF704700BF701100203F
:100714000080005000487047002D3101174B986845
:10072400C0F304400C280AD8DFE800F00B090909DB
:100734000909072119091B1D1F00114870470020D2
:1007440070479B6803F04073B3F1807F11D0B3F11D
:10075400007F10D00B4A002B08BF104670470A4890
:1007640070470A4870470A4870470A4870470A4861
:1007740070470A4870470A48704700BF0040015A52
:10078400405DC60000093D00C0EA210180BA8C0129
:100794000048E801005A62020024F40080841E002C
:1007A40040420F00014B1868704700BF6C110020D5
:1007B40013B500242948019402F0ECF80123042223
:1007C4000321204600F038FF204602F0C9F8012238
:1007D400234B0520C3F8442401A902F0D6F80028CD
:1007E40039D1204BD3F8F02042F00102C3F8F020B5
:1007F400D3F8FC2042F08072C3F8FC201A4AA3F517
:100804005D431A60019B194A03F5D52303F2FC43A7
:10081400B3FBF2F3164A013B13610223C2F8F03032
:100824004FF48073C2F804334FF06043114AC3F8A5
:10083400B02F114AC3F8802ED3F8002E42F48072F0
:10084400C3F8002EFF2283F82020D3F8002E22F4D0
:100854008072C3F8002E02B010BD00BFAC3000009F
:1008640000D0035000ED00E0FF030040F8590D00F4
:10087400000004E055CEACC50900010030B541F6D6
:100884007133124A124DD469D3639368A84204F4B5
:10089400803423F4401306D893600E4AD2F81832F9
:1008A40023F002030AE043F4801393600A4B984256
:1008B400F3D9084AD2F8183243F00203C2F81832C6
:1008C40014B10022014BDA6330BD00BF00000350B5
:1008D400005A620200C0075080F0FA0208B5334B98
:1008E40098424FD027D8324B984245D017D8314B35
:1008F40098423ED00AD838B12F4B984239D041F2B1
:10090400A6312E4801F0D4FF002034E02C4B98424D
:100914002FD02C4B9842F2D12B4B586E2BE02B4B03
:1009240098422CD003F5371303F5D8639842E6D1E7
:10093400254B986F1FE0264B98422FD00CD8254B9F
:10094400984223D0244B984224D0244B9842D6D1A9
:100954001D4BD3F884000EE0214B984222D003F5BE
:10096400740303F510539842C9D1174BD3F8980078
:1009740001E0154B986D08BD134B186FFBE7124B44
:10098400586FF8E7104BD3F88000F4E70E4BD3F818
:100994008800F0E70C4BD3F88C00ECE70A4BD3F853
:1009A4009000E8E7084BD3F89400E4E780BA8C01A0
:1009B400405DC60080841E0040420F002F2E0000C0
:1009C40000093D00C0CF6A000080E00F0024F4005D
:1009D400007E560380D54302006CDC020048E80127
:1009E4000090D00338B50F4B0546D3F880300C4641
:1009F40003F00303022B09D0032B0FD00A4841F262
:100A0400FF1101F055FF0023184602E0FFF756FEE0
:100A14000B2305B1286004B1236038BDFFF77EFEC7
:100A24000523F6E7008000502F2E000038B5164B42
:100A34000546D3F820010C4600F00700042818D816
:100A4400DFE800F01F030B0F1300FFF711FE042370
:100A540005B1286004B1236038BDFFF745FE0323C8
:100A6400F6E7FFF75BFE0523F2E7FFF753FE0223E9
:100A7400EEE7064841F27C2101F01AFF00231846F4
:100A8400E6E70123E4E700BF008000502F2E0000BA
:100A940073B50024144B0194D3F88031064603F057
:100AA4000303022B0D460FD0032B12D0012B15D1BB
:100AB400214601A8FFF7BAFF0D240EB1019A326056
:100AC40005B12C6002B070BDFFF728FE052401902B
:100AD400F3E7FFF71FFE02240190EEE741F2D13164
:100AE400024801F0E5FEE8E7008000502F2E0000E8
:100AF40038B5104B0546D3F840310C4603F00303D8
:100B0400022B0BD0032B0DD0012B0FD101F0CAFE09
:100B1400082305B1286004B1236038BDFFF742FE05
:100B24000723F6E701F0C1FE0923F2E701230020C1
:100B3400EFE700BF0080005038B5104B0546D3F8EE
:100B440060310C4603F00303022B0BD0032B0DD0B2
:100B5400012B0FD101F0A6FE082305B1286004B1D2
:100B6400236038BDFFF71EFE0723F6E701F09DFE64
:100B74000923F2E701230020EFE700BF00800050C3
:100B840038B5164B0546D3F800020C4600F00700B2
:100B9400042819D8DFE800F020030B0F130001F03C
:100BA40081FE082305B1286004B1236038BDFFF736
:100BB400F9FD0723F6E701F078FE0923F2E7FFF7D2
:100BC4007DFD0C23800AEDE7054841F28F4101F0D9
:100BD4006FFE00231846E5E70123E3E70080005099
:100BE4002F2E000038B5164B0546D3F808020C46E4
:100BF40000F00700042819D8DFE800F020030B0FE9
:100C0400130001F04FFE082305B1286004B12360EE
:100C140038BDFFF7C7FD0723F6E701F046FE0923B9
:100C2400F2E7FFF74BFD0C23800AEDE7054841F29C
:100C3400C74101F03DFE00231846E5E70123E3E741
:100C4400008000502F2E000038B5124B0546D3F813
:100C540040320C4603F00303022B0BD0032B0DD0C0
:100C6400012B0FD101F01EFE082305B1286004B149
:100C7400236038BDFFF796FD0723F6E701F015FE64
:100C84000923F2E7044841F21A4101F011FE00235E
:100C94001846EAE7008000502F2E000038B5104BAC
:100CA4000546D3F800310C4603F00303022B0BD0A6
:100CB400032B0DD0012B0FD1FFF716FD032305B134
:100CC400286004B1236038BDFFF76CFD0723F6E705
:100CD40001F0E6FD0623F2E701230020EFE700BF61
:100CE4000080005010B503281BD005D8012805D07A
:100CF400022810D000240CE00F28FBD10B4B1C6FF2
:100D0400C4F30134022C04D140F27D21084801F0DF
:100D1400CFFD601C10BD054BD3F89040C4F30464B0
:100D2400F7E7024B1C6FC4F38024F2E70080005005
:100D34002F2E00001FB500230193252874D8DFE867
:100D440000F013191C262B353A50555A5F64696E0E
:100D540073193F73735519262B26351950266E3A8D
:100D64003A3A3A2626265A5FFFF78EFC01900198FC
:100D740004B010BDFFF7A2FCF8E7FFF785FC0446BA
:100D84000220FFF7AFFFB4FBF0F40194EFE7FFF7A5
:100D940095FC04460320F4E7FFF790FC0446032087
:100DA400FFF7A0FFB4FBF0F46408EEE7002101A80C
:100DB400FFF76EFEDBE7002101A8FFF737FED6E759
:100DC40002934FF0E0231B695B0705D5FFF776FC20
:100DD4000290029B0193CAE703A902A8FFF788FEC9
:100DE400F7E7002101A8FFF783FEC0E7002101A86F
:100DF400FFF7A2FEBBE7002101A8FFF7C1FEB6E79B
:100E0400002101A8FFF7EEFEB1E7002101A8FFF7DA
:100E140045FFACE7002101A8FFF7E4FDA7E70021A7
:100E240001A8FFF711FFA2E74FF46C71014801F02C
:100E34003FFD9CE72F2E000008B50120FFF77AFF45
:100E4400BDE808400349884294BF012102210320E0
:100E540000F002B880F0FA0210B503283DD00AD899
:100E640001280AD0022826D040F21631BDE81040ED
:100E7400224801F01DBD0F28F6D14C1E012C06D9C5
:100E8400042904D040F2C7211C4801F011FD01F0EF
:100E940038FD01F03EFD1A4A136F23F4405343EA30
:100EA40004331367FFF70AFC0021FFF7E7FCBDE8F2
:100EB4001040FFF7C1BF4C1E1F2C04D940F20A3169
:100EC4000E4801F0F5FC0E4AD2F8903023F0F853A6
:100ED40043EA0463C2F8903010BD4C1E012C04D9BF
:100EE4004FF44471054801F0E3FC054A136F23F401
:100EF400806343EA84231367EEE700BF2F2E0000CC
:100F0400008000501FB50023019325286FD8DFE827
:100F140000F0136E6E6E6E2D354B50555A5F64693A
:100F24006E6E3A6E6E506E6E6E6E2D6E4B6E6935D1
:100F34003535356E6E6E555A2E4B1B6F03F0070315
:100F4400013B032B0CD8DFE803F009020507042357
:100F540001930FE00323FBE70623F9E70223F7E7F6
:100F640040F2CA41244801F0A3FC03E0002001A997
:100F7400FFF78EFD019805B05DF804FB002001A980
:100F8400FFF754FDF6E702934FF0E0231B695B077C
:100F940005D5FFF793FB0B230393039BD8E703A922
:100FA40002A8FFF7A5FDF8E7002001A9FFF7A0FDBF
:100FB400E0E7002001A9FFF7BFFDDBE7002001A95E
:100FC400FFF7DEFDD6E7002001A9FFF70BFED1E70E
:100FD400002001A9FFF762FECCE7002001A9FFF77A
:100FE40001FDC7E7002001A9FFF72EFEC2E740F28A
:100FF4007D51B7E7008000502F2E0000024A536A4B
:1010040023F001035362704700C0075070B50546D2
:10101400FFF764FC431E0333044604D940F6CF11A2
:10102400284801F045FC284B5A68012A04D1274975
:101034004A609A699207FCD10020FFF763FF0428F5
:1010440003D101F05EFC01F064FC214A24F04073FA
:10105400954228D01F4A954228D01F4CE26812F0CE
:10106400060FFBD1A668A360A268534013F4F81FCF
:101074001FD12846FFF702FB0020FFF743FF042897
:101084001ED1FFF71BFB8542044604D240F62821FB
:101094000C4801F00DFC20460021FFF7EFFBBDE8F2
:1010A4007040FFF7C9BE43F00073D6E743F0807386
:1010B400D3E740F61721034801F0FAFBA660DBE70B
:1010C40070BD00BF2F2E000000C0015000E0015091
:1010D40040420F0080841E0000000150F8B50368F0
:1010E40004460F2B04D940F67731694801F0E0FB40
:1010F40063680F2B04D940F67A31654801F0D8FBB8
:10110400A3680F2B04D940F67D31614801F0D0FB70
:10111400237B0F2B04D94FF438615D4801F0C8FBE1
:10112400637B0F2B04D940F68331594801F0C0FB8F
:10113400A37B3F2B04D940F68631554801F0B8FB18
:10114400E37B3F2B04D940F68931514801F0B0FBD1
:101154002369032B04D940F68C314D4801F0A8FBD8
:101164006369032B04D940F68F31494801F0A0FB91
:10117400E369012B04D940F69231454801F098FB0C
:101184000020FFF7BFFE032800F0818045F60E0320
:101194000221404AC2F880303F4B9962012103F595
:1011A40080539962936DD903FCD4D4E900131B05D1
:1011B40043EA0163E17B94F820500B43217BE77EF3
:1011C40043EA0143617B6D0143EA0133A17B43EAB6
:1011D400811313619169D4E904031B0643EA806314
:1011E40001F000410B43A17E94F823000B43217EC0
:1011F40043EA0143617E43EA01239361136AE6698A
:1012040023F00D0394F8221043EA870366BB1362AC
:10121400966A94F8213045EA031326F033052B43EC
:1012240043F0010393621D4D1A4A936D35EA03039B
:10123400FBD10225184B9D62936D5B00FCD41369AE
:10124400A56823F4700343EA055313614FF0004289
:10125400114B9A6119B9022203F580539A6278B945
:1012640001220F4B9A620BE0334343F008031362ED
:10127400936A23F0330303432B4343EA410393620A
:1012840094F824301BB1034B064AC3F88020F8BD00
:101294002F2E000000C0005000D000500300014079
:1012A40000E00050F1A7FFFF014B93F900007047E5
:1012B4006111002010B543680446072B04D940F699
:1012C400D351274801F0F4FAA368032B04D940F65C
:1012D400D551234801F0ECFA2378032B04D940F6C6
:1012E400D7511F4801F0E4FA94F90130002B04DAD5
:1012F40040F6D9511A4801F0DBFA4FF4D1510220DB
:10130400184A6378516218494F2B48604FF0010026
:1013140028BF4F2301F5805148601169C903FCD4EB
:10132400217843EA01235361D4E901131B0143EA01
:101334000123617B0B43217B43EA41039360E37BFD
:10134400A17B1B0143EA4113617C0B43217C43EAEB
:1013540041035360A37C13B16FF4D153536210BDA6
:101364002F2E00000000025000100250014B188084
:10137400704700BFCA110020014B1880704700BF9E
:10138400C811002010B5454B0446984265D03BD89F
:10139400A3F5B703A3F5586398425AD02DD8404B10
:1013A40098424AD013D8002863D041F2C9113D486D
:1013B40001F07EFA40F673713A4801F079FA384B3D
:1013C4009C4269D0384B9C4258D1002332E0364BC2
:1013D400984226D0354B9842E7D1354BD3F8A040FC
:1013E400621E033224F0407404D940F673712D4810
:1013F40001F05EFA2F4A946010BD2F4B9842D4D16D
:101404002B4BD3F8BC40EBE72C4B984229D02C4B08
:1014140098422AD02B4B9842C7D1254BD3F8C840C9
:10142400DEE7234BD3F8A040621E033224F040745D
:101434002CD8234643F08074DCE71D4BD3F8A0403E
:10144400621E033224F040741AD8234643F0007419
:10145400D0E7174BD3F8B840C2E7154BD3F8C040D8
:10146400BEE7134BD3F8CC40BAE7114BD3F8D040C6
:10147400B6E740F673710B4801F01AFA0024B9E795
:1014840040F67371074801F013FADEE740F6737112
:10149400044801F00DFACCE70023D7E7C0EA2101A4
:1014A40040420F002F2E000080841E0000093D00E2
:1014B4000080E00F0040015A0024F4000048E801D5
:1014C400005A620280BA8C01034A0179D36E23F078
:1014D40030030B43D36670470040005070B51F299A
:1014E40004460D46164603D99121064801F0E0F959
:1014F4002EB104F580540123AB40236070BD04F584
:101504000054F8E78D2E000038B5032804460D4634
:1015140004D80B4B1B5CCB40DB0704D440F22D41B9
:10152400084801F0C5F930220123544341F2100266
:1015340004F1A044AB4004F57034A35038BD00BF9F
:10154400A92F0000EB2E000038B5032804460D46F1
:1015540004D80B4B1B5CCB40DB0704D440F2FE31B8
:10156400084801F0A5F930220123544342F2100245
:1015740004F1A044AB4004F57034A35038BD00BF5F
:10158400A92F0000EB2E00002DE9F84F0328064692
:101594000D46144698469DF828A09DF82C9004D832
:1015A4001D4B1B5CCB40DB0703D4BF211B4801F060
:1015B4007FF985EA0403032B03D9C121174801F0FD
:1015C40077F9072C12D803274FEA840B07FA0BF795
:1015D4003946134806FA0BF205F0030501F0B1F998
:1015E4003946104805FA0BF201F0ABF942462146A0
:1015F4000D48FFF773FF524621460C48FFF76EFF74
:1016040001230B4AA340C2F8203421464A46BDE8D0
:10161400F84F0848FFF762BFA92F00004A2F0000C7
:1016240000C4035008C4035010C4035014C403502E
:1016340000E0035024C40350F8B5032804460D46C3
:1016440016461F4604D81C4B1B5CCB40DB0704D456
:101654004FF4B071194801F02BF926B12946204600
:10166400CFB1FFF751FF04EB4403072D4FF00F01F7
:101674004FEA031312D8A80006FA00F2814010487A
:10168400184401F05EF9AEB92946204677B1BDE8A9
:10169400F840FFF739BFFFF757FFE4E7A5F108006B
:1016A400800006FA00F281400648E9E7BDE8F84008
:1016B400FFF74ABFF8BD00BFA92F00004A2F000062
:1016C40004C003500CC00350054B5B69C3F385127F
:1016D400827003F03F021B0B42700370704700BF1F
:1016E40000C00750094B98420DD003F5804398423F
:1016F40009D003F58043984205D003F58043C31A0B
:101704005842584170470120704700BF0080045080
:1017140038B505460C46FFF7E5FF18B9B4211F4854
:1017240001F0C6F8284601F01CF9012205F5005322
:101734001A63237961881B0243EA8143A17A0B432C
:10174400617843EA8113E17A43EAC113217B43EAD6
:101754004113617B43EA0113A17B43EAC103E17BAB
:1017640043EAC123A17943EA0143E17943EA4143CE
:101774006B6005F580531A6322780AB90223EB6083
:1017840000236B626379217A1B0143EA8103617A46
:101794000B43AB600AB10123EB6038BDAD2F0000F1
:1017A4000D4B984208D1A3F50033C3F88411C36DDF
:1017B40043F08003C3657047084B984204D1A3F5F6
:1017C4001033C3F89411F2E7054B984204BFA3F514
:1017D4002033C3F8A411EAE70080055000C0055087
:1017E40000000650F8B507460C461D4616464AB991
:1017F4004FF4A171314801F05BF824B1402D08D1B8
:10180400062327E019B90320FFF794FA0446402D74
:1018140042D0402D09D87DB1202D17D040F2891136
:10182400BDE8F840254801F043B8602DF6D1B6EB89
:10183400940F3CD804230DE0B6EB141F04D94FF4E5
:10184400BA711E4801F034F8102303E0B6EBD40F4C
:101854001CD808235E43730803EB4413B3FBF6F36D
:10186400174E203BB6EBC30F4FEAC30404D24FF428
:10187400D071124801F01CF8BB68344023F06003B7
:10188400BB60BB681D43BD60FC61F8BD40F27911CB
:101894000A4801F00DF8DCE70623B4FBF3F3B34286
:1018A400AED24FF4BF71054801F002F8A8E740F248
:1018B4008311024800F0FCFFBCE700BF0D300000BC
:1018C400F8FF7F0010B51B4B044698420CD003F57B
:1018D4008043984208D003F58043984204D040F2F4
:1018E4004241154800F0E4FF012204F580535A6098
:1018F40040F6AA6341F20502636100230F49A36025
:10190400E365E26004F500522361E361E3649164FA
:101914000849A3658C4203D123650023636506E06F
:1019240007498C42F8D001F580418C42F4D0012360
:10193400536010BD008005500D300000FFFF010012
:1019440000C0055070B5444B044698420D460CD077
:1019540003F58043984208D003F58043984204D0AD
:1019640040F2FD213D4800F0A3FF2046FFF7AAFF07
:10197400012304F580567360AB7C1BB1A36843F06C
:101984008043A360EB7C1BB12046297DFFF708FF51
:101994002A8A6B7B20461343EA891343E3602B7B3B
:1019A400D5E90112FFF71EFF6B7D1BB1A36843F459
:1019B4008033A360AB7D1BB1A36843F40043A360F1
:1019C400EB7D2A7E1B07120502F4E00203F0E043DC
:1019D4001343A365697E204A8B1E012B204B1DD81F
:1019E400944217D002F58042944215D002F5804209
:1019F40094420CBF02224FF0FF3203EB4213022049
:101A040041F2AC520329985020D10423F3652B787A
:101A1400636170BD0022F0E70122EEE7944211D029
:101A2400104A944210D002F5804294420CBF022224
:101A34004FF0FF3203EB4213022042F2AC52012971
:101A44009850E1E70022F5E70122F3E7042204F5C8
:101A54000053DA65DBE700BF008005500D3000005D
:101A640000C0035000C0055030B58BB06D46604CCB
:101A74000FCC0FC554F8043B68462B604FF07E63CF
:101A840093F89C306D46FF2B08BF25238DF8013059
:101A9400FFF710FC3220FFF769FC0FCC0FC50FCC09
:101AA4000FC594E8030085E80300524BD3F84C219A
:101AB400110340F18380A3F5FE431C884FF6FF73A6
:101AC4009C4208BF81248DF81940FFF7EDFB0444C4
:101AD40084F3080448488DF81840FEF70BFE684666
:101AE400FFF7FCFA3220FFF747FC444C4448FFF769
:101AF4008DFA4448FFF746FC00F00FFF236F0020E7
:101B040023F0070343F002032367236F23F45053A6
:101B140043F48063236700F007FF3B4BD3F8FC20BA
:101B2400D2014FD4D4F8803023F0030343F00203EE
:101B3400C4F88030314BD3F8202122F0070242F060
:101B44000102C3F82021D3F8802122F0030242F0DD
:101B54000102C3F88021D3F8402122F0030242F0AD
:101B64000202C3F84021D3F8602122F0030242F0BC
:101B74000202C3F86021D3F8402222F0030242F0AB
:101B84000202C3F84022D3F8002222F0070242F0F6
:101B94000202C3F80022D3F8082222F0070242F01E
:101BA4000202C3F80822FFF729FA4FF0E0220020CE
:101BB400136963F0040313610BB030BDD3F85041D3
:101BC400E4B280E7D3F8FC2022F08072C3F8FC2052
:101BD400D4F8802022F0030242F00202C4F88020EC
:101BE400D3F8FC2042F08072C3F8FC20A2E700BFC7
:101BF400703000000080E00F00F0490200800050C7
:101C040000B4C404C0EA210100ED00E013B50024CF
:101C1400064A6846536F43F00103536700948DF8F6
:101C24000440FFF751FC204602B010BD00400050B4
:101C340010B53D28044608D801236109074A04F079
:101C44001F04A34042F8213010BD4FF48A710448A8
:101C540000F02EFE002CF7DBEEE700BF00E100E011
:101C6400B0300000002808DB01224309034900F0DA
:101C74001F008240603341F82320704700E100E0F8
:101C840038B500F110034D2B04460D4604D94FF42A
:101C9400E1710D4800F00CFE1E2D04D940F2C31171
:101CA400094800F005FE002CACBF04F16044074B6A
:101CB4004FEA0515EDB2ABBF04F5614404F00F041F
:101CC40084F800531D5538BDB030000014ED00E019
:101CD4000346054A0549106803448B428CBF4FF004
:101CE400FF301360704700BF741100200080012092
:101CF40081F0004102E000BF83F0004330B54FEAB9
:101D040041044FEA430594EA050F08BF90EA020F25
:101D14001FBF54EA000C55EA020C7FEA645C7FEAB8
:101D2400655C00F0E2804FEA5454D4EB5555B8BFDB
:101D34006D420CDD2C4480EA020281EA030382EA4C
:101D4400000083EA010180EA020281EA0303362DDE
:101D540088BF30BD11F0004F4FEA01314FF4801CB1
:101D64004CEA113102D0404261EB410113F0004FC3
:101D74004FEA03334CEA133302D0524263EB43037A
:101D840094EA050F00F0A780A4F10104D5F1200E18
:101D94000DDB02FA0EFC22FA05F2801841F1000173
:101DA40003FA0EF2801843FA05F359410EE0A5F147
:101DB40020050EF1200E012A03FA0EFC28BF4CF078
:101DC400020C43FA05F3C01851EBE37101F000452E
:101DD40007D54FF0000EDCF1000C7EEB00006EEB3B
:101DE4000101B1F5801F1BD3B1F5001F0CD34908C5
:101DF4005FEA30004FEA3C0C04F101044FEA44521C
:101E040012F5800F80F09A80BCF1004F08BF5FEAA2
:101E1400500C50F1000041EB045141EA050130BD82
:101E24005FEA4C0C404141EB0101013C28BFB1F594
:101E3400801FE9D291F0000F04BF01460020B1FADF
:101E440081F308BF2033A3F10B03B3F120020CDAB2
:101E54000C3208DD02F1140CC2F10C0201FA0CF090
:101E640021FA02F10CE002F11402D8BFC2F1200CF5
:101E740001FA02F120FA0CFCDCBF41EA0C019040AB
:101E8400E41AA2BF01EB0451294330BD6FEA0404F4
:101E94001F3C1CDA0C340EDC04F11404C4F12002DF
:101EA40020FA04F001FA02F340EA030021FA04F3F1
:101EB40045EA030130BDC4F10C04C4F1200220FA48
:101EC40002F001FA04F340EA0300294630BD21FA86
:101ED40004F0294630BD94F0000F83F4801306BF4C
:101EE40081F480110134013D4EE77FEA645C18BF40
:101EF4007FEA655C29D094EA050F08BF90EA020FD7
:101F040005D054EA000C04BF1946104630BD91EACE
:101F1400030F1EBF0021002030BD5FEA545C05D1D1
:101F24004000494128BF41F0004130BD14F5800410
:101F34003CBF01F5801130BD01F0004545F0FE4184
:101F440041F470014FF0000030BD7FEA645C1ABFB9
:101F5400194610467FEA655C1CBF0B46024650EAF0
:101F6400013406BF52EA033591EA030F41F400211C
:101F740030BD00BF90F0000F04BF0021704730B5A2
:101F84004FF4806404F132044FF000054FF0000177
:101F940050E700BF90F0000F04BF0021704730B538
:101FA4004FF4806404F1320410F0004548BF40420D
:101FB4004FF000013EE700BF42004FEAE2014FEA62
:101FC40031014FEA02701FBF12F07F4393F07F4F3D
:101FD40081F06051704732F07F4208BF704793F040
:101FE4007F4F04BF41F40021704730B54FF4607453
:101FF40001F0004521F000411CE700BF50EA010256
:1020040008BF704730B54FF000050AE050EA0102FE
:1020140008BF704730B511F0004502D5404261EB6E
:1020240041014FF4806404F132045FEA915C3FF4AF
:10203400D8AE4FF003025FEADC0C18BF03325FEA4C
:10204400DC0C18BF033202EBDC02C2F1200300FAFD
:1020540003FC20FA02F001FA03FE40EA0E0021FA22
:1020640002F11444BDE600BF08B5064B044613B1A3
:102074000021AFF30080044B1B6803B1984720464E
:1020840000F027FC00000000501100200CB4184B95
:1020940030B50C1E9DB01D6808DA8B234FF0FF305D
:1020A4002B601DB0BDE8304002B070474FF402739E
:1020B4000290069002A9ADF8143014BF04F1FF3366
:1020C4002346209A2846049307934FF6FF73ADF8EE
:1020D400163021AB019300F021F9431CBCBF8B23C4
:1020E4002B60002CDDD0029B00221A70D9E700BFC0
:1020F4007811002070B50D4D00260D4C641BA41002
:10210400A64209D10B4D00260B4C00F017FE641BB0
:10211400A410A64205D170BD55F8043B013698477A
:10212400EEE755F8043B01369847F2E7CC1100205E
:10213400CC110020CC110020D011002038B5054668
:10214400002941D051F8043C0C1F002BB8BFE418FF
:1021540000F0D8F81D4A136833B963601460284648
:10216400BDE8384000F0D4B8A34208D9206821184B
:102174008B4201BF19685B6809182160EDE71A46B4
:102184005B680BB1A342FAD911685018A0420BD175
:1021940020680144501811608342E0D118685B68DC
:1021A400084453601060DAE702D90C232B60D6E7A9
:1021B400206821188B4202BF19685B6809186360A4
:1021C40008BF21605460CAE738BD00BF5C1100201D
:1021D40070B50F4E0C460546316811B900F0C6FAC9
:1021E40030602146284600F0C1FA431C03D14FF069
:1021F400FF34204670BDC41C24F00304A042F8D070
:10220400211A284600F0B2FA0130F2D1EFE700BFFC
:10221400581100202DE9F041CD1C064625F0030598
:1022240008350C2D38BF0C25002D01DBA94204D93B
:102234000C2333600020BDE8F081314F00F062F8D8
:102244003B681C4644BB29463046FFF7C1FF431C8C
:10225400044650D13C682146002941D1002C44D089
:102264002368304604EB030800F080FA80453CD133
:10227400216830466D1A2946FFF7AAFF013034D091
:1022840023682B4423603B68002B36D05A68A24253
:1022940029D100225A600EE02268521B1DD40B2A59
:1022A40016D96119A342256018BF5960636808BF35
:1022B400396062514B60304600F02AF804F10B009B
:1022C400231D20F00700C21AB5D01B1AA350B2E791
:1022D400A3426268DED13A60EDE723466468B1E761
:1022E4000C464968B8E71346CEE70C233046336002
:1022F40000F00EF89EE70560DDE75B60FFDE00BFDF
:102304005C110020014800F0D0BB00BF6211002026
:10231400014800F0CBBB00BF621100202DE9F04F53
:1023240098468B899DB007461B060D46144610D56A
:102334000B6973B94021FFF76DFF2860286130B93C
:102344000C233B604FF0FF301DB0BDE8F08F4023FD
:102354006B610023CDF80C804FF00109DFF8A081F8
:10236400099320238DF8293030238DF82A30234611
:102374009A4613F8012B0AB1252AF9D1BAEB040BBA
:102384000BD05B4622462946384600F098FB0130C4
:1023940000F0A780099A5A4409929AF80030002B59
:1023A40000F09F8000234FF0FF320AF1010A0493EA
:1023B40007938DF853301A93CDE90523544605222B
:1023C4004F4814F8011B00F061FC049AD8B9D006F8
:1023D40044BF20238DF85330110744BF2B238DF8BD
:1023E40053309AF800302A2B15D0079A544600200F
:1023F4004FF00A0C214611F8013B303B092B4BD915
:10240400B0B1079214E0A0EB0803A24609FA03F363
:1024140013430493D2E7039B191D1B68002B0391FC
:10242400BBBF5B4242F0020207930793B8BF04921A
:1024340023782E2B0AD163782A2B32D1039B0234C2
:102444001A1D1B6843EAE37303920593DFF8C0A0E7
:1024540003222178504600F019FC38B1A0EB0A00A1
:102464004022049B013482401343049314F8011B5B
:10247400062224488DF8281000F008FC002836D0E5
:10248400214B1BBB039B073323F007030833039340
:10249400099B334409936AE70CFB02320C46012082
:1024A400A8E7002301344FF00A0C1946059320468F
:1024B40010F8012B303A092A03D9002BC6D0059114
:1024C400C4E70CFB012104460123F0E703AB2A46D1
:1024D40004A9384600930D4BAFF30080421C064616
:1024E400D6D1AB895B063FF52DAF09982CE703AB3A
:1024F4002A4604A938460093044B00F00BF8EDE794
:10250400383100004231000000000000C32A0000FE
:102514003E3100002DE9FF470F7E914680460C4670
:10252400782F9A460C9E01F1430207D8622F0AD8ED
:10253400002F00F0DD80582F00F0C38004F1420624
:1025440084F842703AE0A7F16303152BF6D801A191
:1025540051F823F0B1250000C525000041250000F5
:10256400412500004125000041250000C52500004B
:1025740041250000412500004125000041250000BF
:10258400DB260000532600009326000041250000AE
:1025940041250000FD2600004125000053260000CF
:1025A40041250000412500009B26000033681A1DC8
:1025B4001B68326004F1420684F842300123A8E02B
:1025C40031682368081D30601E0601D50D6803E0DC
:1025D4005D06FBD5B1F90050002D616878DA2D2035
:1025E4000029A16084F843002DDA6D425D480A2376
:1025F4001646B5FBF3F103FB1157C75D06F8017DE1
:102604002F460D46BB42F4D9082B0BD12368DF07B4
:1026140008D5236961689942DEBF302306F8013C7E
:1026240006F1FF36921B22614B4603AA214640461F
:10263400CDF800A000F09EFA01306FD14FF0FF30CA
:1026440004B0BDE8F08723F004032360CDE72168DC
:102654003368080653F8045B02D4490648BFADB298
:102664006F2F33603F4814BF0A230823002184F8E6
:1026740043106668002EA660BADB216821F00401CD
:102684002160002DB4D1002EB2D11646BCE72368D8
:1026940043F02003236078273348236884F8457087
:1026A4001F06316851F8045B02D45F0648BFADB21F
:1026B4003160D90744BF43F0200323601DB11023C8
:1026C400D4E72848E9E7236823F020032360F6E7EA
:1026D40024480A23CDE733682568181D61693060F2
:1026E4002E061B6801D5196002E06806FBD5198027
:1026F40000231646236197E7336800211A1D3260D0
:102704001E686268304600F0C1FA08B1801B606040
:1027140063682361002384F8433085E723693246E4
:1027240049464046D047013088D023689B0714D4DB
:10273400E068039B9842B8BF184681E701233246FC
:1027440049464046D04701303FF478AF0135E3684D
:1027540003995B1AAB42F1DCEAE7002504F11906A0
:10276400F5E700BF493100005A31000038B50023B5
:10277400054D044608462B60FFF7AAFA431C02D114
:102784002B6803B1236038BD541100207047704793
:1027940013B50123032218460021FEF74DFF012340
:1027A400032219461846FEF747FF0023042202219C
:1027B4000320FEF741FF0321002308460422FEF70D
:1027C4003BFF1A20FFF734FA1920FFF731FA0124EE
:1027D400002320461A461946CDE90044FEF7D4FEEC
:1027E4000023224621462046CDE90044FEF7CCFED4
:1027F40002B010BD08B50123042205210020FEF714
:102804001BFF0023012218460621FEF715FF0422B0
:10281400012311460320FEF70FFFBDE80840FFF730
:10282400B7BF70B506460C468D18AC4200D170BDDA
:10283400304614F8011B00F0A1F8F6E700F011B8D7
:1028440008B5FDF7B5FFBDE8084000F013B800F087
:1028540006B87047704770477047704770470F203D
:10286400704708B50422002311460320FEF7E4FE56
:10287400002008BD08B5082000F02CF8BDE8084089
:10288400082000F032B8FEE74AB110B5002350F832
:10289400234041F8234001339342F8D110BD7047DF
:1028A400002070474FF4004070474FF47A7070472F
:1028B400FEE7EFF3108072B6704700B962B6704756
:1028C400EFF31180302383F31188704780F311886C
:1028D4007047FEE74FF060420123D2F8001E8340A8
:1028E4000B430020C2F8003E70474FF060410122C4
:1028F400D1F8003E824023EA02030020C1F8003EE2
:10290400704708B5FDF7ECFEBDE808400021FDF76F
:10291400B5BF02210320FEF79FBA08B5FFF7F1FF08
:10292400BDE80840FFF7F5BF10B50446FDF7C6FE45
:102934000021FDF7A3FF1CB1BDE81040FEF77CBAEF
:1029440010BD70B5054614460E46FFF7B2FF2B685E
:102954005C4034405C402C60BDE87040FFF7ADBF84
:102964007047036BDA0702D503695B06F9D4704735
:1029740083691B06FCD5406AC0B2704783695B0655
:10298400FCD5C163704700F008B809B100F007B87E
:1029940022207047012100F043B80020704770B531
:1029A40006460D46FFF78CFF04461C2E35D8DFE89B
:1029B40006F00F18341C1E20342224343434262804
:1029C400342A2C2E30343434343434343434320015
:1029D400FDF75AFE002628602046FFF777FF3046B1
:1029E40070BD0120FEF7A6F9F4E70320FAE70420FE
:1029F400F8E70C20F6E70220F4E70620F2E70720C8
:102A0400F0E70820EEE70520ECE70920EAE70A20D2
:102A1400E8E70D20E6E71020E4E700202126DAE7C6
:102A240000207047FFF720B810B56FF0040420466B
:102A340005210134FFF724F93D2CF8D110BD08B568
:102A4400FDF746FDFFF7FCFEFFF701FFFFF701FF6F
:102A5400BDE80840FFF7FEBE08B5FFF7FCFEFFF730
:102A6400FBFEFFF7FAFEBDE80840FFF7F7BE02449D
:102A74000346934200D1704703F8011BF9E70A7833
:102A840070B56AB970BD9A4209D10C46054614F86E
:102A9400013F002BF6D015F8016F9E42F7D00130AC
:102AA4000378002BEFD11846ECE7704770470346D4
:102AB40013F8012B002AFBD1181A013870472DE9AD
:102AC400F0471F468E6882460C46BE4290460B680D
:102AD4002DD8B1F90C2012F4906F26D065690969DC
:102AE40005EB4505A3EB01097B1C05EBD5754B44B0
:102AF4006D109D4238BF1D46530527D52946FFF763
:102B040089FB064660B34A46216900F0CDF8A389E3
:102B140023F4906343F08003A38126614E446561EE
:102B2400A5EB090526603E46A560BE4200D93E4697
:102B340032464146206800F08FF8A36800209B1BB2
:102B4400A360236833442360BDE8F0872A4600F07D
:102B5400B8F806460028E0D121695046FFF7EEFA9E
:102B64000C234FF0FF30CAF80030A38943F0400330
:102B7400A381E9E72DE9F047164698468A68074697
:102B84000B690C46DDF820909342B8BF13463360BE
:102B940091F843200AB1013333602368990642BF98
:102BA400336802333360256815F0060506D104F155
:102BB400190AE36832689B1AAB422BDC94F8433061
:102BC4002268003B18BF0123920630D404F143026B
:102BD40041463846C847013023D023681A3454F894
:102BE4000A2C03F00603042B0ABF54F80E5C0025DC
:102BF40033684FF0000608BFED1A54F8123C08BFC2
:102C040025EAE5759342C4BF9B1AED18B5421AD163
:102C1400002008E00123524641463846C8470130A7
:102C240003D14FF0FF30BDE8F0870135C1E7E1186B
:102C34005A1C30200233224481F8430094F8451092
:102C440082F84310C2E70123224641463846C8476A
:102C54000130E6D00136D9E7884210B501EB020411
:102C640002D98442234607D8431EA14208D011F852
:102C7400012B03F8012FF8E7024401468A4200D1F0
:102C840010BD13F8014D02F8014DF7E7C9B2034630
:102C9400024410B59342184601D1002003E00478A1
:102CA40001338C42F6D110BD0A44431E914200D137
:102CB400704710B511F8014B914203F8014FF9D157
:102CC40010BD2DE9F041804615460C4621B9114648
:102CD400BDE8F041FFF79EBA2AB9FFF72FFA0024A6
:102CE4002046BDE8F08100F01AF88542064602D875
:102CF400B5EB500FF4D829464046FFF78BFA074648
:102D04000028ECD0B5422A46214628BF3246FFF7B8
:102D1400CBFF214640463C46FFF710FAE0E751F866
:102D2400043C181F002BBCBF0B58C0187047000090
:102D3400000000000000000000000000F8B500BF23
:102D4400F8BC08BC9E467047F8B500BFF8BC08BC88
:102D54009E467047643A5C73696C69636F6E6C611C
:102D6400625C73696D706C69636974795F73646BB9
:102D74005F73756974655F76323032345F365F3203
:102D84002D3030315C73696D706C69636974795F7F
:102D940073646B5F355C706C6174666F726D5C65D7
:102DA4006D6C69625C696E635C656D5F74696D65A9
:102DB400722E6800427574746F6E203020507265F4
:102DC40073736564210A00427574746F6E20312038
:102DD40050726573736564210A006C6564313A6FDF
:102DE4006E006C6564313A6F6666006C6564323AF5
:102DF4006F6E006C6564323A6F6666004C656431D0
:102E04003A25732C204C6564323A25730A004D65CB
:102E140073736167652072656365697665642069AB
:102E24006E20256C75206D730D0A00443A2F53698A
:102E34006C69636F6E4C61622F73696D706C69634A
:102E44006974795F73646B5F73756974655F7632F7
:102E54003032345F365F322D3030312F73696D700C
:102E64006C69636974795F73646B5F352F706C612F
:102E740074666F726D2F656D6C69622F7372632F48
:102E8400656D5F636D752E6300643A5C73696C698C
:102E9400636F6E6C61625C73696D706C6963697495
:102EA400795F73646B5F73756974655F7632303212
:102EB400345F365F322D3030315C73696D706C690C
:102EC400636974795F73646B5F355C706C6174669D
:102ED4006F726D5C656D6C69625C696E635C656D77
:102EE4005F6275732E6800643A5C73696C69636F22
:102EF4006E6C61625C73696D706C69636974795F2F
:102F040073646B5F73756974655F76323032345FF6
:102F1400365F322D3030315C73696D706C69636972
:102F240074795F73646B5F355C706C6174666F7227
:102F34006D5C656D6C69625C696E635C656D5F6731
:102F440070696F2E6800443A2F53696C69636F6E21
:102F54004C61622F73696D706C69636974795F7316
:102F6400646B5F73756974655F76323032345F36D3
:102F74005F322D3030312F73696D706C6963697401
:102F8400795F73646B5F352F706C6174666F726DFB
:102F94002F656D6C69622F7372632F656D5F677047
:102FA400696F2E63007F033F1F443A2F53696C6996
:102FB400636F6E4C61622F73696D706C69636974C1
:102FC400795F73646B5F73756974655F76323032F1
:102FD400345F365F322D3030312F73696D706C6918
:102FE400636974795F73646B5F352F706C617466A9
:102FF4006F726D2F656D6C69622F7372632F656DCF
:103004005F74696D65722E6300443A2F53696C696D
:10301400636F6E4C61622F73696D706C6963697460
:10302400795F73646B5F73756974655F7632303290
:10303400345F365F322D3030312F73696D706C69B7
:10304400636974795F73646B5F352F706C61746648
:103054006F726D2F656D6C69622F7372632F656D6E
:103064005F75736172742E63000000000126000016
:103074000400000000000000000100000000000047
:103084000B0000000B0000000200000000002020E4
:1030940000000000030000008C8C3C0000000000D5
:1030A4000000000000000000FFFFFFFF443A2F5320
:1030B400696C69636F6E4C61622F73696D706C69C2
:1030C400636974795F73646B5F73756974655F7644
:1030D400323032345F365F322D3030312F73696DC8
:1030E400706C69636974795F73646B5F352F706C9E
:1030F4006174666F726D2F736572766963652F698B
:103104006E746572727570745F6D616E61676572FD
:103114002F7372632F736C5F696E7465727275704E
:10312400745F6D616E616765725F636F72746578F9
:103134006D2E6300232D302B2000686C4C006566D7
:1031440067454647003031323334353637383941F4
:10315400424344454600303132333435363738390A
:0831640061626364656600000E
:08316C0058D0FF7F01000000B4
:0C31740080310000641100201C000000ED
:10318000C0EA2101C0EA21010080000000F04902EC
:10319000D81100207C110020000000001810002031
:1031A00080100020E8100020000000000000000057
:1031B000000000000000000000000000000000000F
:1031C00000000000000000000000000000000000FF
:1031D00000000000000000000000000000000000EF
:1031E00000000000FFFFFFFFA101000079010000C7
:04000003000005B93B
:00000001FF
