S00B0000626169332E7333378A
S113000000100020010A0000F5330000F533000061
S1130010F5330000F5330000F5330000F53300003C
S1130020F5330000F5330000F5330000F53300002C
S1130030F5330000F5330000F5330000F53300001C
S1130040F5330000F5330000F5330000F53300000C
S1130050F5330000F5330000F5330000F5330000FC
S1130060F5330000F5330000F9240000F5330000F7
S1130070F5330000F5330000F5330000F5330000DC
S1130080F5330000F5330000F5330000F5330000CC
S1130090F5330000F5330000F5330000F5330000BC
S11300A0F5330000F5330000F5330000F5330000AC
S11300B0F5330000F5330000F5330000F53300009C
S11300C0F5330000F5330000F5330000F53300008C
S11300D0F5330000F5330000F5330000F53300007C
S11300E0F5330000F5330000F5330000F53300006C
S11300F0F5330000F5330000F5330000F53300005C
S1130100F5330000F5330000F5330000F53300004B
S1130110F5330000F5330000F5330000F53300003B
S1130120F5330000F5330000F5330000F53300002B
S1070130F53300009F
S1130140013800D0FCE770470348044B834202D0D7
S1130150034B03B118477047801A0020801A00200F
S113016000000000064B0749C91A891048BF013135
S1130170491003D0044B0BB101481847704700BF26
S1130180801A0020801A00200000000010B5064CE0
S1130190237843B9FFF7D8FF044B13B10448AFF3F6
S11301A000800123237010BDF21100200000000024
S11301B0D843000008B5054B1BB105490548AFF30A
S11301C00080BDE80840FFF7CDBF00BF000000007D
S11301D000100020D8430000A3F5803A704700BF08
S11301E0174B002B08BF134B9D46FFF7F5FF00216B
S11301F08B460F461348144A121A03F042FA0E4B68
S1130200002B00D098470D4B002B00D098470020BE
S1130210002104000D000D48002802D00C48AFF363
S1130220008002F095FB2000290003F09EF802F004
S113023049FB00BF000008000000000000000000AF
S11302400010002000100020FC1900200000000015
S113025000000000F0B585B003F0C1F818B16521C5
S1130260284803F0DCF8002000F076F918B1692181
S1130270244803F0D4F8244800F0D6F9074618B10E
S11302806D21204803F0CBF800256FF07F431E4C0E
S113029001262046C4E9013502F0B1FE1B4920467F
S11302A003F011F80B231A4A20461370194A1370ED
S11302B0194A137002F0A3FE33462A461749204612
S11302C0CDE90156009503F00BF833460622144994
S11302D02046CDE90156009503F002F83346082282
S11302E02046CDE901560F49009502F0F9FF37B1D8
S11302F09A21044805B0BDE8F04003F090B805B079
S1130300F0BD00BF3839000018100020703900001B
S1130310F5110020F4110020F311002045390000EC
S11303204D39000056390000F0B589B01021194F3D
S1130330194E3B78194D01933378194A00932B7861
S11303400DEB010002F0D0FA002401230322CDE9D1
S1130350014304A91348009402F0C2FF00F024F9F9
S11303603B780133DBB23B2B02D83B7009B0F0BDC4
S113037033783C700133DBB23B2B01D83370F5E7A3
S11303802B7834700133DBB2172B94BF2B702C7095
S1130390ECE700BFF3110020F4110020F511002058
S11303A05F390000181000200123054A411100F0B4
S11303B01F00834052F82100034342F82130704764
S11303C044100020044B1B681BB1044B0360002045
S11303D070470120704700BF54100020E411002032
S11303E070B50D4C246884B10C4C85182688B54230
S11303F00DDC6688CD18B54209DC52B14BB1A08042
S11304000020E1802281638170BD0120FCE704208B
S1130410FAE70520F8E700BF54100020E41100209B
S11304202DE9F74F9946494B1B68002B00F08A8051
S1130430B9F1000718BF01274FF0010BDFF814A131
S11304407F42BAF80650BAF80A300D9E2B449BB28C
S11304500D440093FFB2ADB21EB9304603B0BDE8FF
S1130460F08F009AABB29A426ED9BAF80840BAF843
S11304700430241AB44228BF34461844344B361B83
S113048080B203EB0512B9F1000F0AD0072C26D86D
S11304900444A04216D32846FFF786FF0135002006
S11304A0DAE7072C1BD80444A042F4D2C108535CF9
S11304B000F0070C0BFA0CFC23EA0C030130535434
S11304C080B2F1E7C10812F801C000F007030BFA8B
S11304D003F343EA0C030130535480B2D9E74FEAE3
S11304E0D00C02EBD00810F007000BD1E20839461B
S11304F04046019203F0C5F814F00704019ACAD0EB
S1130500904412E00BFA00F312F80CE0DBB2591E2F
S11305105B420EEA01013B4008381943044402F8E7
S11305200C10E20808F10108E1D10BFA04F498F880
S11305300030E4B26242013C13403C40234388F85B
S11305400030A8E7012688E7042686E75410002037
S1130550F6110020E411002037B5114D2B68EBB9DA
S113056000F064F9044610B1012003B030BD00F07E
S113057051F928600028F7D002884188094B2046A9
S11305801A801A814A43598059819C80DC80214613
S1130590CDE9004223462246FFF742FF0020E4E76C
S11305A054100020E41100202DE9F8430023012514
S11305B01A461A4FDFF86C803C68DFF86490D8F86C
S11305C00000D61841888E4207D3FBB910220021BF
S11305D0124803F056F8002012E0E10708D5013371
S11305E0D118C9060ABF57F8254064080135E6E763
S11305F053B109EB021100F0B1F8034610B1072022
S1130600BDE8F883721CEBE70132E9E7044901EB2A
S1130610021100F0A3F80028D8D0F0E7441000201D
S1130620F61100205410002030B587B0054600B301
S113063000226FF07F43C0E9012301A8FFF7C2FE47
S1130640044698B9019BCDE902001A882B605B88A7
S1130650013A013B284602A90492059302F0FAFCF0
S1130660044618B92846044902F02DFE204607B076
S113067030BD0524FAE700BFA03C000013B50446D2
S113068001F0CCFD00230122217BCDE90032490099
S1130690B0FBF1F1024A034802F086FF02B010BD3C
S11306A0A90600006C1000200122014B1A6170475A
S11306B000F00350F7B508260E4C054604F58053A8
S11306C01E67407B01F042FF04230B4F02220DF111
S11306D006013846ADF8063002F031FE384602F025
S11306E03FFEA87B01F032FF002004F5005426678A
S11306F003B0F0BD00C00350FC19002070B50646DD
S1130700124802F0F9FEB1680022114800F09EF888
S1130710002304220321022001F046F90023354678
S11307200C4C04221946184601F03EF90FCD0FC4B3
S113073001222B6830462360074B1A70FFF79EFF97
S11307403046FFF7B7FF002070BD00BF3042000005
S1130750FC19002058100020F61900202DE9F04162
S113076086B00E4615461C46074600284AD0002986
S113077048D0002B46D00822234BEDB21A67407BA9
S113078001F0E4FE0021012C4FF01002019102A8B7
S11307901DD102F076FF102231460DF106008DF8CE
S11307A004408DF8055002F076FF142201A9174881
S11307B002F0C5FD154802F0D3FDB87B01F0C6FE7A
S11307C008220020124B1A6706B0BDE8F08102F03F
S11307D058FF01230DF1040804EB04148DF80430D0
S11307E0444488F80150314608F10200102208F10F
S11307F0110802F050FF0135A045EDB206F12006C4
S1130800EFD1D2E72120DFE700D00350FC1900200C
S113081000E00350034B04481B78002B08BF002062
S1130820704700BFF61900205810002030B587B07B
S1130830054D01AC0FCD0FC42B6801A82360FFF751
S11308405DFF07B030BD00BFD03F00002DE9F04F81
S113085089B004462C4E01AD894690460FCE0FC593
S113086096E80700D4F800B0284B85E807009B45BC
S113087045D003F580439B4543D0254DAB450CBF84
S113088002254FF0FF35DFF890A022480AEB451708
S1130890D7F8AC6502F030FE606802F02DFE617B93
S11308A0207B0023042201F07FF80422617A207A5D
S11308B0002301F079F80123584601A98DF812307C
S11308C0CDF80C90ADF8148001F0BCF90020627AE8
S11308D0237A2E3543EA02430AEB451ACAF8043058
S11308E0627B237B06F0040643EA024346F01806C3
S11308F0C7F8C035C7F8AC6509B0BDE8F08F00256E
S1130900C1E70125BFE700BFE43F000000800550B8
S1130910000006503042000000C0035007B501A893
S113092001F0FCF89DF80530012B27D11E4A936D88
S1130930DB0313D4536B23F4FF0323F4FE4343F488
S1130940BC1343F4A0635363136B23F4704343F465
S113095040431363136B43F4E06313639DF8043063
S113096063B94FF000531B68104B1B68104B1B6896
S1130970104B1B68104B1B68104B1B68104AD2F8B5
S1130980803043F00303C2F8803002F0FFFD00F032
S113099023F802F0F9FD02F0A8FD01F07DFA03B09E
S11309A05DF804EB00F00EB800C0005000400020D9
S11309B00080002000C00020000001200040012031
S11309C00080005008B5034802F096FDBDE80840D9
S11309D002F0DBBC30420000014802F08DBD00BFD4
S11309E0304200000348044A0449121A921002F0EB
S11309F002BD00BF3401000034010000FC190020D6
S1130A0008B500F02FF8FFF7EDFF124B12498B42A7
S1130A1012D30020114B12498B4218D3FFF7E0FB8D
S1130A20186850F82240586840F82240013298680B
S1130A308242F5D30C33EAE70022F8E71C6844F855
S1130A40220001325C68A242F8D30833E4E70022B2
S1130A50F8E700BFE0430000EC430000EC43000073
S1130A60EC43000070B5124B124A134D9A60D3F850
S1130A70882005F5005442F47002C3F888206FF012
S1130A800102226641F2FF7262660222C3F8D0209C
S1130A90BFF34F8FBFF36F8F4FF44036032001F045
S1130AA027FA0320E66001F009FA2E6170BD00BF49
S1130AB000ED00E00000000000800044014B1868D5
S1130AC0704700BF101A0020014B1860704700BF28
S1130AD0101A0020084B1B6F03F00703022B04D0ED
S1130AE0032B05D0012B05D0FEE7044B1868704793
S1130AF0034BFBE70348704700800050101A0020A6
S1130B00181A0020002D310108B5FFF7E3FF054B4B
S1130B101B6FC3F301330133B0FBF3F0024B1860D6
S1130B2008BD00BF008000500C1A00200048704728
S1130B3000B4C404014B1868704700BF181A0020A1
S1130B40054B1860054B1B6F03F00703032B01D102
S1130B50FFF7DABF704700BF181A0020008000506A
S1130B6000487047002D3101174B9868C0F30440CA
S1130B700C280AD8DFE800F00B0909090909072144
S1130B8019091B1D1F0011487047002070479B68FE
S1130B9003F04073B3F1807F11D0B3F1007F10D024
S1130BA00B4A002B08BF104670470A4870470A4892
S1130BB070470A4870470A4870470A4870470A480D
S1130BC070470A48704700BF0040015A405DC600A4
S1130BD000093D00C0EA210180BA8C010048E80107
S1130BE0005A62020024F40080841E0040420F0078
S1130BF0014B1868704700BF141A002013B5002475
S1130C002948019402F078FC0123042203212046A0
S1130C1000F0CAFE204602F05AFC0122234B0520B4
S1130C20C3F8442401A902F062FC002839D1204B06
S1130C30D3F8F02042F00102C3F8F020D3F8FC20EE
S1130C4042F08072C3F8FC201A4AA3F55D431A608F
S1130C50019B194A03F5D52303F2FC43B3FBF2F3DA
S1130C60164A013B13610223C2F8F0304FF480733B
S1130C70C2F804334FF06043114AC3F8B02F114A4D
S1130C80C3F8802ED3F8002E42F48072C3F8002EED
S1130C90FF2283F82020D3F8002E22F48072C3F8B8
S1130CA0002E02B010BD00BF3042000000D003503F
S1130CB000ED00E0FF030040F8590D00000004E0DF
S1130CC055CEACC50900010030B541F67133124A66
S1130CD0124DD469D3639368A84204F4803423F496
S1130CE0401306D893600E4AD2F8183223F0020358
S1130CF00AE043F4801393600A4B9842F3D9084AFC
S1130D00D2F8183243F00203C2F8183214B10022A8
S1130D10014BDA6330BD00BF00000350005A620289
S1130D2000C0075080F0FA0208B5334B98424FD008
S1130D3027D8324B984245D017D8314B98423ED0F1
S1130D400AD838B12F4B984239D041F2A6312E48F7
S1130D5002F065FB002034E02C4B98422FD02C4B42
S1130D609842F2D12B4B586E2BE02B4B98422CD04F
S1130D7003F5371303F5D8639842E6D1254B986FF2
S1130D801FE0264B98422FD00CD8254B984223D0F5
S1130D90244B984224D0244B9842D6D11D4BD3F8EF
S1130DA084000EE0214B984222D003F5740303F52E
S1130DB010539842C9D1174BD3F8980001E0154B52
S1130DC0986D08BD134B186FFBE7124B586FF8E78B
S1130DD0104BD3F88000F4E70E4BD3F88800F0E70B
S1130DE00C4BD3F88C00ECE70A4BD3F89000E8E7FF
S1130DF0084BD3F89400E4E780BA8C01405DC60048
S1130E0080841E0040420F000040000000093D00A5
S1130E10C0CF6A000080E00F0024F400007E560377
S1130E2080D54302006CDC020048E8010090D00346
S1130E3038B50F4B0546D3F880300C4603F0030356
S1130E40022B09D0032B0FD00A4841F2FF1102F004
S1130E50E6FA0023184602E0FFF756FE0B2305B11D
S1130E60286004B1236038BDFFF77EFE0523F6E752
S1130E70008000500040000038B5164B0546D3F8FA
S1130E8020010C4600F00700042818D8DFE800F021
S1130E901F030B0F1300FFF711FE042305B1286095
S1130EA004B1236038BDFFF745FE0323F6E7FFF7DF
S1130EB05BFE0523F2E7FFF753FE0223EEE7064845
S1130EC041F27C2102F0ABFA00231846E6E7012345
S1130ED0E4E700BF008000500040000073B5002428
S1130EE0144B0194D3F88031064603F00303022B1C
S1130EF00D460FD0032B12D0012B15D1214601A88A
S1130F00FFF7BAFF0D240EB1019A326005B12C60CF
S1130F1002B070BDFFF728FE05240190F3E7FFF748
S1130F201FFE02240190EEE741F2D131024802F0A3
S1130F3076FAE8E7008000500040000038B5104B16
S1130F400546D3F840310C4603F00303022B0BD0C3
S1130F50032B0DD0012B0FD102F05BFA082305B14E
S1130F60286004B1236038BDFFF742FE0723F6E78B
S1130F7002F052FA0923F2E701230020EFE700BF51
S1130F800080005038B5104B0546D3F860310C464C
S1130F9003F00303022B0BD0032B0DD0012B0FD135
S1130FA002F037FA082305B1286004B1236038BD84
S1130FB0FFF71EFE0723F6E702F02EFA0923F2E7F5
S1130FC001230020EFE700BF0080005038B5164B26
S1130FD00546D3F800020C4600F00700042819D88F
S1130FE0DFE800F020030B0F130002F012FA0823CD
S1130FF005B1286004B1236038BDFFF7F9FD07236C
S1131000F6E702F009FA0923F2E7FFF77DFD0C2366
S1131010800AEDE7054841F28F4102F000FA00230F
S11310201846E5E70123E3E7008000500040000094
S113103038B5164B0546D3F808020C4600F00700F5
S1131040042819D8DFE800F020030B0F130002F086
S1131050E0F9082305B1286004B1236038BDFFF727
S1131060C7FD0723F6E702F0D7F90923F2E7FFF7F4
S11310704BFD0C23800AEDE7054841F2C74102F01D
S1131080CEF900231846E5E70123E3E7008000508A
S11310900040000038B5124B0546D3F840320C46E8
S11310A003F00303022B0BD0032B0DD0012B0FD124
S11310B002F0AFF9082305B1286004B1236038BDFC
S11310C0FFF796FD0723F6E702F0A6F90923F2E7F6
S11310D0044841F21A4102F0A2F900231846EAE753
S11310E0008000500040000038B5104B0546D3F88E
S11310F000310C4603F00303022B0BD0032B0DD05D
S1131100012B0FD1FFF716FD032305B1286004B1AD
S1131110236038BDFFF76CFD0723F6E702F077F98B
S11311200623F2E701230020EFE700BF0080005010
S113113010B503281BD005D8012805D0022810D0EB
S113114000240CE00F28FBD10B4B1C6FC4F30134BB
S1131150022C04D140F27D21084802F060F9601CA1
S113116010BD054BD3F89040C4F30464F7E7024B79
S11311701C6FC4F38024F2E700800050004000009C
S11311801FB500230193252874D8DFE800F0131954
S11311901C262B353A50555A5F64696E73193F7398
S11311A0735519262B26351950266E3A3A3A3A26A3
S11311B026265A5FFFF78EFC0190019804B010BDFB
S11311C0FFF7A2FCF8E7FFF785FC04460220FFF7CF
S11311D0AFFFB4FBF0F40194EFE7FFF795FC04468E
S11311E00320F4E7FFF790FC04460320FFF7A0FF79
S11311F0B4FBF0F46408EEE7002101A8FFF76EFEEB
S1131200DBE7002101A8FFF737FED6E702934FF092
S1131210E0231B695B0705D5FFF776FC0290029B70
S11312200193CAE703A902A8FFF788FEF7E70021A4
S113123001A8FFF783FEC0E7002101A8FFF7A2FE83
S1131240BBE7002101A8FFF7C1FEB6E7002101A812
S1131250FFF7EEFEB1E7002101A8FFF745FFACE779
S1131260002101A8FFF7E4FDA7E7002101A8FFF78B
S113127011FFA2E74FF46C71014802F0D0F89CE72B
S11312800040000008B50120FFF77AFFBDE80840E0
S11312900349884294BF01210221032000F002B8CF
S11312A080F0FA0210B503283DD00AD801280AD0EC
S11312B0022826D040F21631BDE81040224802F040
S11312C0AEB80F28F6D14C1E012C06D9042904D03F
S11312D040F2C7211C4802F0A2F802F0C9F802F05B
S11312E0CFF81A4A136F23F4405343EA04331367C5
S11312F0FFF70AFC0021FFF7E7FCBDE81040FFF709
S1131300C1BF4C1E1F2C04D940F20A310E4802F012
S113131086F80E4AD2F8903023F0F85343EA046377
S1131320C2F8903010BD4C1E012C04D94FF4447106
S1131330054802F074F8054A136F23F4806343EA06
S113134084231367EEE700BF0040000000800050D4
S11313501FB50023019325286FD8DFE800F0136E32
S11313606E6E6E2D354B50555A5F64696E6E3A6ED3
S11313706E506E6E6E6E2D6E4B6E69353535356EF4
S11313806E6E555A2E4B1B6F03F00703013B032B64
S11313900CD8DFE803F009020507042301930FE0EA
S11313A00323FBE70623F9E70223F7E740F2CA41E8
S11313B0244802F034F803E0002001A9FFF78EFD71
S11313C0019805B05DF804FB002001A9FFF754FD66
S11313D0F6E702934FF0E0231B695B0705D5FFF79F
S11313E093FB0B230393039BD8E703A902A8FFF7FE
S11313F0A5FDF8E7002001A9FFF7A0FDE0E7002024
S113140001A9FFF7BFFDDBE7002001A9FFF7DEFD1F
S1131410D6E7002001A9FFF70BFED1E7002001A9C0
S1131420FFF762FECCE7002001A9FFF701FDC7E743
S1131430002001A9FFF72EFEC2E740F27D51B7E775
S11314400080005000400000024A536A23F0010368
S11314505362704700C0075070B50546FFF764FC3F
S1131460431E0333044604D940F6CF11284801F043
S1131470D6FF284B5A68012A04D127494A609A6941
S11314809207FCD10020FFF763FF042803D101F089
S1131490EFFF01F0F5FF214A24F04073954228D074
S11314A01F4A954228D01F4CE26812F0060FFBD168
S11314B0A668A360A268534013F4F81F1FD12846FE
S11314C0FFF702FB0020FFF743FF04281ED1FFF7BC
S11314D01BFB8542044604D240F628210C4801F047
S11314E09EFF20460021FFF7EFFBBDE87040FFF7A9
S11314F0C9BE43F00073D6E743F08073D3E740F6E8
S11315001721034801F08BFFA660DBE770BD00BF25
S11315100040000000C0015000E0015040420F00B4
S113152080841E0000000150F8B5036804460F2BA8
S113153004D940F67731694801F071FF63680F2BD5
S113154004D940F67A31654801F069FFA3680F2B8E
S113155004D940F67D31614801F061FF237B0F2BF4
S113156004D94FF438615D4801F059FF637B0F2BB8
S113157004D940F68331594801F051FFA37B3F2B36
S113158004D940F68631554801F049FFE37B3F2BEF
S113159004D940F68931514801F041FF2369032BF6
S11315A004D940F68C314D4801F039FF6369032BAF
S11315B004D940F68F31494801F031FFE369012B2A
S11315C004D940F69231454801F029FF0020FFF785
S11315D0BFFE032800F0818045F60E030221404A35
S11315E0C2F880303F4B9962012103F58053996220
S11315F0936DD903FCD4D4E900131B0543EA0163BA
S1131600E17B94F820500B43217BE77E43EA0143BE
S1131610617B6D0143EA0133A17B43EA81131361CA
S11316209169D4E904031B0643EA806301F0004195
S11316300B43A17E94F823000B43217E43EA01432C
S1131640617E43EA01239361136AE66923F00D0383
S113165094F8221043EA870366BB1362966A94F8EF
S1131660213045EA031326F033052B4343F00103ED
S113167093621D4D1A4A936D35EA0303FBD102258B
S1131680184B9D62936D5B00FCD41369A56823F429
S1131690700343EA055313614FF00042114B9A6102
S11316A019B9022203F580539A6278B901220F4BCB
S11316B09A620BE0334343F008031362936A23F006
S11316C0330303432B4343EA4103936294F82430E6
S11316D01BB1034B064AC3F88020F8BD004000004C
S11316E000C0005000D000500300014000E0005052
S11316F0F1A7FFFF014B93F900007047F719002091
S113170010B543680446072B04D940F6D351274843
S113171001F085FEA368032B04D940F6D551234874
S113172001F07DFE2378032B04D940F6D7511F48DE
S113173001F075FE94F90130002B04DA40F6D9511A
S11317401A4801F06CFE4FF4D1510220184A637814
S1131750516218494F2B48604FF0010028BF4F23B6
S113176001F5805148601169C903FCD4217843EA2A
S113177001235361D4E901131B0143EA0123617B73
S11317800B43217B43EA41039360E37BA17B1B0171
S113179043EA4113617C0B43217C43EA41035360D8
S11317A0A37C13B16FF4D153536210BD0040000009
S11317B00000025000100250014B1880704700BF17
S11317C0721A0020014B1880704700BF701A002065
S11317D010B5454B0446984265D03BD8A3F5B703F2
S11317E0A3F5586398425AD02DD8404B98424AD01A
S11317F013D8002863D041F2C9113D4801F00FFE0F
S113180040F673713A4801F00AFE384B9C4269D0A5
S1131810384B9C4258D1002332E0364B984226D0B4
S1131820354B9842E7D1354BD3F8A040621E0332C2
S113183024F0407404D940F673712D4801F0EFFD93
S11318402F4A946010BD2F4B9842D4D12B4BD3F820
S1131850BC40EBE72C4B984229D02C4B98422AD021
S11318602B4B9842C7D1254BD3F8C840DEE7234B16
S1131870D3F8A040621E033224F040742CD82346CF
S113188043F08074DCE71D4BD3F8A040621E0332A2
S113189024F040741AD8234643F00074D0E7174B61
S11318A0D3F8B840C2E7154BD3F8C040BEE7134B9A
S11318B0D3F8CC40BAE7114BD3F8D040B6E740F6A2
S11318C073710B4801F0ABFD0024B9E740F6737166
S11318D0074801F0A4FDDEE740F67371044801F007
S11318E09EFDCCE70023D7E7C0EA210140420F0068
S11318F00040000080841E0000093D000080E00FCD
S11319000040015A0024F4000048E801005A620231
S113191080BA8C01034A0179D36E23F030030B4360
S1131920D36670470040005038B5032804460D467E
S113193004D80B4B1B5CCB40DB0704D440F22D4195
S1131940084801F06CFD30220123544341F2100297
S113195004F1A044AB4004F57034A35038BD00BF7B
S11319601C4100005E40000038B5032804460D46C3
S113197004D80B4B1B5CCB40DB0704D440F2FE3194
S1131980084801F04CFD30220123544342F2100276
S113199004F1A044AB4004F57034A35038BD00BF3B
S11319A01C4100005E400000F8B5032804460D46C3
S11319B016461F4604D81C4B1B5CCB40DB0704D4E3
S11319C04FF4B071194801F02AFD26B1294620468A
S11319D0CFB1FFF7A9FF04EB4403072D4FF00F012C
S11319E04FEA031312D8A80006FA00F28140104807
S11319F0184401F05DFDAEB92946204677B1BDE833
S1131A00F840FFF791BFFFF7AFFFE4E7A5F1080047
S1131A10800006FA00F281400648E9E7BDE8F84094
S1131A20FFF7A2BFF8BD00BF1C410000BD4000008D
S1131A3004C003500CC0035038B5022805460C46B8
S1131A4003D94C210C4801F0EAFCE3786278217850
S1131A505B0143EA820322790B4343EA02130C221B
S1131A606A4302F1B0421363012902BFA278034B17
S1131A7043F8252038BD00BF20410000D08003502A
S1131A8008B54FF0B0435A686AB958B15B680BB1F6
S1131A9001F01EFD01210D4B596001F019FD4FF0BD
S1131AA0B043D96008BD5B680BB101F011FD00289B
S1131AB0F0D101F00DFD4FF0B0430222DA6001F0E5
S1131AC007FD0122024B5A60ECE700BF00100058EA
S1131AD00020005810B54FF0B0414B680BB101F035
S1131AE0F7FC01220B4BC4785A608378934043EA95
S1131AF0840344782343047943EA0413447943EA8E
S1131B00C4038B60044B5A600378C3F10203CB60B7
S1131B1010BD00BF0020005800100058054B5B6941
S1131B20C3F38512827003F03F021B0B42700370F3
S1131B30704700BF00C007500D4B984208D1A3F571
S1131B400033C3F88411C36D43F08003C365704749
S1131B50084B984204D1A3F51033C3F89411F2E76B
S1131B60054B984204BFA3F52033C3F8A411EAE758
S1131B700080055000C005500000065070B50646B0
S1131B800C46154622B940F28E210C4801F047FC60
S1131B901CB90320FFF7F4FA04466D00013CB4FBC2
S1131BA0F5F4074B250213EA042304D040F2B321D1
S1131BB0024801F034FCF56170BD00BF7F410000B4
S1131BC0070080FF10B51B4B044698420CD003F568
S1131BD08043984208D003F58043984204D040F2F1
S1131BE04241154801F01BFC012204F580535A6060
S1131BF040F6AA6341F20502636100230F49A36022
S1131C00E365E26004F500522361E361E3649164F7
S1131C100849A3658C4203D123650023636506E06C
S1131C2007498C42F8D001F580418C42F4D001235D
S1131C30536010BD008005507F410000FFFF01008C
S1131C4000C0055038B5294B044698420D460CD0C7
S1131C5003F58043984208D003F58043984204D0AA
S1131C6040F26931224801F0DAFB2046FFF7AAFF6F
S1131C70012204F580535A602B8AA26843F00103C1
S1131C801343AA7B43EA8223A360A3682A7D43EA21
S1131C904273A360AB7C1BB12046E97CFFF74CFF89
S1131CA0D5E901122B7B204643F48053E360FFF710
S1131CB065FF6B7B0BB1102363616B7D1BB1A36864
S1131CC043F48033A360AB7D1BB1A36843F40043AA
S1131CD0A360EB7D2A7E1B07120503F0E04302F4A8
S1131CE0E0021343A3652B78636138BD008005507F
S1131CF07F41000030B58BB06D46604C0FCC0FC5F2
S1131D0054F8043B68462B604FF07E6393F89C3094
S1131D106D46FF2B08BF25238DF80130FFF7F0FC3B
S1131D203220FFF749FD0FCC0FC50FCC0FC594E847
S1131D30030085E80300524BD3F84C21110340F112
S1131D408380A3F5FE431C884FF6FF739C4208BFB3
S1131D5081248DF81940FFF7CDFC044484F3080472
S1131D6048488DF81840FEF7EBFE6846FFF7DCFBA9
S1131D703220FFF727FD444C4448FFF76DFB4448ED
S1131D80FFF726FD01F080FB236F002023F00703FB
S1131D9043F002032367236F23F4505343F4806317
S1131DA0236701F078FB3B4BD3F8FC20D2014FD4DE
S1131DB0D4F8803023F0030343F00203C4F88030E6
S1131DC0314BD3F8202122F0070242F00102C3F87C
S1131DD02021D3F8802122F0030242F00102C3F84B
S1131DE08021D3F8402122F0030242F00202C3F81A
S1131DF04021D3F8602122F0030242F00202C3F82A
S1131E006021D3F8402222F0030242F00202C3F818
S1131E104022D3F8002222F0070242F00202C3F863
S1131E200022D3F8082222F0070242F00202C3F88B
S1131E300822FFF709FB4FF0E0220020136963F04A
S1131E40040313610BB030BDD3F85041E4B280E712
S1131E50D3F8FC2022F08072C3F8FC20D4F8802050
S1131E6022F0030242F00202C4F88020D3F8FC20DE
S1131E7042F08072C3F8FC20A2E700BFE0410000FA
S1131E800080E00F00F049020080005000B4C40458
S1131E90C0EA210100ED00E013B50024064A6846BB
S1131EA0536F43F00103536700948DF80440FFF728
S1131EB031FD204602B010BD0040005010B53D2851
S1131EC0044608D801236109074A04F01F04A3400B
S1131ED042F8213010BD4FF48A71044801F09FFA92
S1131EE0002CF7DBEEE700BF00E100E03442000025
S1131EF0002808DB01224309034900F01F00824047
S1131F00603341F82320704700E100E038B500F168
S1131F1010034D2B04460D4604D94FF4E1710D48CE
S1131F2001F07DFA1E2D04D940F2C311094801F0D5
S1131F3076FA002CACBF04F16044074B4FEA051558
S1131F40EDB2ABBF04F5614404F00F0484F8005310
S1131F501D5538BD3442000014ED00E00346054A27
S1131F600549106803448B428CBF4FF0FF30136067
S1131F70704700BF1C1A00200080012030B50E4CB1
S1131F80416123688BB9206083600DE0891A9A68E7
S1131F901D4641616AB113465A698A42F6D935B180
S1131FA0A860521A83605A6130BD0025F4E72060AE
S1131FB0F7E798608260F7E79410002038B501F0E5
S1131FC035FB0025084B094C1A682368C31A2AB14B
S1131FD023B15169994203D3C91A5161206038BDB4
S1131FE055615B1A9268F2E794100020901000206B
S1131FF038B5134D2B685B6993B1124A02201468FB
S11320001C4401F01AFB204600F024FA00230E4978
S11320102A680B70D088800709D501230B7038BD5E
S1132020022001F00AFB022000F05EFAEEE792685B
S1132030002AF4D050690344012BEBD9EFE700BF29
S11320409410002090100020F919002070B5164655
S11320509DF81420C0E903360271049ABDF81830C3
S11320600260002204460D468260C380EEB901F08E
S1132070DDFA2844A0619DB12E4601F0D1F9054650
S1132080FFF79CFF31462046FFF778FF104B1B6893
S1132090A34201D1FFF7ACFF284601F0C5F902E0E5
S11320A0E36865617BB9002070BD01F0BFFA30447C
S11320B0A061002DE0D1E3686561002BDDD02046EE
S11320C021689847D9E7204621689847EBE700BF85
S11320D09410002000220C490B687BB183420AD182
S11320E083687AB1936083681BB15A6941690A4471
S11320F05A61002070471A469B68EEE70028EFD02B
S1132100022070470B60EEE79410002070B501F0D8
S11321108EF9144E05463478FCB9134B1C60134BEE
S11321201C60134B1C8000F055F9012001F085FA66
S113213000F0FCF90F4B0246186020B9284601F064
S11321407CF9232070BD234640F2E7310A4800F0B1
S113215029FA0A4B186001233370284601F06DF9FF
S11321600020EFE7FA1900209410002090100020BE
S1132170F01100209810002018FCFFFF8C100020A4
S113218070B5044640B301F04BF9144E0546FFF711
S113219015FF3068A04209D02046FFF79BFF044694
S11321A0B0B1284601F040F9204670BDFFF792FF18
S11321B004460028F5D133683BB9022000F07CF9CD
S11321C0284601F031F90024EEE7FFF711FFF7E7A5
S11321D03368002BF4D1F0E72224E5E794100020C3
S11321E038B50C460546A8B1A1B100230B7001F027
S11321F01EF90121084B1B6833B901F01EF90020B8
S113220038BD9D4204D121702278002AF9D0F4E728
S11322109B68F1E72220F3E794100020014B186833
S1132220704700BF9810002038B50021044640F2E2
S1132230E730054B4FF47A721D680023E5FB040177
S113224000F0B0F938BD00BF9810002000B58DB083
S113225001238DF80F30FFF7E7FF00230146CDE996
S11322600033074A0DF10F0304A801F0B9F918B9B6
S11322709DF80F30002BFBD10DB05DF804FB00BFBF
S1132280A33500002DE9F047C20704460BD54D4A9B
S1132290138801339BB21380FFF790FE4A4B1B68EF
S11322A00BB1FFF7A5FEA30740F18A8001F0BFF848
S11322B04FF0000905464E46FFF780FEC846424FE0
S11322C03C680CB163698BB10022404B012E1A703B
S11322D003D119F0020F18BF1E70002C6CD0FFF749
S11322E087FE2846BDE8F04701F0A7B823465A699F
S11322F03AB91A792179914288BF1C469B68002B10
S1132300F5D1284601F099F82569DDB101F08EF97F
S1132310A269A0EB02094FEAE9734D4578EB030388
S113232011DA23691344A361E368B4F80690013613
S113233013B120462168984701F079F80546FFF764
S11323403DFEBDE7A94601F072F882462046FFF73C
S1132350C1FE504601F071F82369002BE4D0B5EBBF
S113236009054FEAE97363EB4303002B04DA40F2F7
S11323703451174801F053F8A38B33B1E28B134463
S11323809BB2B3F57A7F0FD2E38301F050F8814614
S113239029462046FFF7F2FDA36922694846134403
S11323A0A36101F04AF8BFE7A3F57A73E383A36955
S11323B0013D013BA361E8E7022000F07DF890E7CE
S11323C0BDE8F087F011002094100020F8190020D7
S11323D0BC4200001FB500241B4B18689A88029069
S11323E0D3F806009B7A00901848ADF80C208DF8BD
S11323F0043001F081F88DF8084001F015F98DF8EA
S11324000C0002A8FFF766FB694601208DF8004026
S1132410FFF712FB4FF0B0431F219A6922F01F020D
S11324209A610B4A51619A6A12F00802FBD11A624E
S11324300120FFF725FB0A20FFF75AFD0A20FFF7CA
S11324403DFD04B010BD00BF2E4300002C4200002F
S11324500020005810B5044600F0E2FF4FF0B042EF
S1132460936A1907FCD4136A116C5269120704D4D5
S1132470CA1A032A01D88B420ED1E21A022A98BF43
S1132480DC1CB4F1FF3F38BF013C4FF0B0431C6487
S11324909A6942F008029A6100F0C6FF054A13786F
S11324A03BB14FF0B041CB6B43F00203CB6300234D
S11324B0137010BD741A0020820700F001030AD5BE
S11324C00121084A43F0080311704FF0B041CA6B70
S11324D022F00302CA634FF0B0418A6922EA03037F
S11324E08B617047741A0020830742BF0822014B96
S11324F05A6170470010005810B500F098FF4FF073
S1132500B04304465B691A07074A03F0010003F06D
S11325100D0348BF40F002005361FFF7B3FE2046AD
S1132520BDE8104000F089BF0020005807B5064BF5
S113253001A9187900F0DBFF01F076F8019B23FA7A
S113254000F003B05DF804FB1C42000010B5044623
S1132550FEF7DAFA4FF47A729042B0FBF2F105D248
S11325603621BDE810400C4800F059BF0B4BB3FBBB
S1132570F1F30B49884201D93C21F2E702FB04F054
S1132580B0FBF3F0022806D9BDE810400323B0FBEA
S1132590F3F0FDF7D5BD10BD3943000040420F00F4
S11325A0E7CD9A3B53B94AB9002908BF00281CBF9C
S11325B04FF0FF314FF0FF3000F082B9ADF1080C5D
S11325C06DE904CE00F006F8DDF804E0DDE902234D
S11325D004B070472DE9F04F099D0C46002B4DD1F6
S11325E08A420F4684469646B2FA82F360D94BB1CA
S11325F002FA03FEC3F120029F4000FA03FC20FA12
S113260002F217434FEA1E461FFA8EF44FEA1C42A9
S1132610B7FBF6F106FB117701FB04F042EA07422F
S1132620904208D91EEB020201F1FF3702D2904218
S113263000F231813946121A1FFA8CFCB2FBF6F013
S113264006FB102200FB04F44CEA024C644508D952
S11326501EEB0C0C00F1FF3202D2644500F21E8125
S1132660104640EA0140ACEB040C002125B12CFAE1
S113267003F30022C5E90032BDE8F08F8B4205D98F
S11326800DB1C5E9000100210846F5E7B3FA83F16D
S113269000294DD1A342C0F0F380904280F0F08035
S11326A0064623460846002DE6D0C5E90063E3E765
S11326B0002B40F0A3808A1A4FEA1E471FFA8EF6B9
S11326C00121B2FBF7F407FB14204FEA1C4242EA53
S11326D0004206FB04F090420FD91EEB020204F103
S11326E0FF382CBF4FF001094FF00009904203D985
S11326F0B9F1000F00F0CC804446121A1FFA8CFC8A
S1132700B2FBF7F007FB102200FB06F64CEA024C82
S1132710664508D91EEB0C0C00F1FF3202D2664567
S113272000F2B3801046ACEB060C40EA04409DE78F
S1132730C1F120068B4004FA01FE22FA06F720FAC2
S113274006FCF4408A401F434EEA0C0300FA01FEE3
S11327504FEA17484FEA13491FFA87FCB4FBF8F015
S113276008FB104449EA044400FB0CF9A1450ED9C6
S11327703C1900F1FF3A2CBF4FF0010B4FF0000B56
S1132780A14503D9BBF1000F00F08B805046A4EBA8
S113279009041FFA83F9B4FBF8F308FB134403FBA1
S11327A00CFC49EA0444A44506D93C1903F1FF385A
S11327B001D2A4457BD8434643EA0040A4EB0C0471
S11327C0A0FB02984445CC46434602D306D1CE45ED
S11327D004D20138B9EB020C68EB0703002D6CD06E
S11327E0BEEB0C0264EB030422FA01F304FA06F6CE
S11327F0CC4000211E43C5E900643DE702FA03FE14
S1132800C3F1200104FA03F200FA03FCCC404FEABE
S11328101E4720FA01F11FFA8EF6B4FBF7F00A43C3
S113282007FB1044110C41EA044100FB06F48C42FE
S11328300ED91EEB010100F1FF382CBF4FF0010946
S11328404FF000098C4202D9B9F1000F2CD0404658
S1132850091B92B2B1FBF7F407FB141142EA0142DF
S113286004FB06F1914207D91EEB020204F1FF3882
S113287001D291421ED84446521A44EA004120E74C
S1132880861A64EB030301200DE7F44402384AE797
S1132890023C724431E702397244CCE6F444023813
S11328A0DFE602383C4472E702387144D0E7023B69
S11328B03C4481E7023C7244DEE72946DCE600BF83
S11328C0704700BF08B5064B044613B10021AFF3AF
S11328D00080044B1B6803B19847204600F0B0FD0C
S11328E000000000D41100200CB4184B30B50C1EAD
S11328F09DB01D6808DA8B234FF0FF302B601DB0AC
S1132900BDE8304002B070474FF402730290069065
S113291002A9ADF8143014BF04F1FF332346209A02
S11329202846049307934FF6FF73ADF8163021AB96
S1132930019300F021F9431CBCBF8B232B60002CB6
S1132940DDD0029B00221A70D9E700BF201A0020B4
S113295070B50D4D00260D4C641BA410A64209D180
S11329600B4D00260B4C00F0DBFF641BA410A642A9
S113297005D170BD55F8043B01369847EEE755F88C
S1132980043B01369847F2E7781A0020781A0020B1
S1132990781A00207C1A002038B50546002941D059
S11329A051F8043C0C1F002BB8BFE41800F0D8F811
S11329B01D4A136833B9636014602846BDE8384083
S11329C000F0D4B8A34208D9206821188B4201BF73
S11329D019685B6809182160EDE71A465B680BB15A
S11329E0A342FAD911685018A0420BD120680144BF
S11329F0501811608342E0D118685B680844536042
S1132A001060DAE702D90C232B60D6E7206821187E
S1132A108B4202BF19685B680918636008BF2160B4
S1132A205460CAE738BD00BFE011002070B50F4EF6
S1132A300C460546316811B900F0C6FA30602146EB
S1132A40284600F0C1FA431C03D14FF0FF3420465E
S1132A5070BDC41C24F00304A042F8D0211A2846F7
S1132A6000F0B2FA0130F2D1EFE700BFDC11002030
S1132A702DE9F041CD1C064625F0030508350C2D43
S1132A8038BF0C25002D01DBA94204D90C23336087
S1132A900020BDE8F081314F00F062F83B681C462D
S1132AA044BB29463046FFF7C1FF431C044650D1BE
S1132AB03C682146002941D1002C44D0236830468B
S1132AC004EB030800F080FA80453CD121683046CD
S1132AD06D1A2946FFF7AAFF013034D023682B442E
S1132AE023603B68002B36D05A68A24229D10022C9
S1132AF05A600EE02268521B1DD40B2A16D96119A4
S1132B00A342256018BF5960636808BF39606251E9
S1132B104B60304600F02AF804F10B00231D20F02E
S1132B200700C21AB5D01B1AA350B2E7A3426268C9
S1132B30DED13A60EDE723466468B1E70C464968A4
S1132B40B8E71346CEE70C233046336000F00EF8A6
S1132B509EE70560DDE75B60FFDE00BFE01100205B
S1132B60014800F096BD00BFFB190020014800F0A9
S1132B7091BD00BFFB1900202DE9F04F98468B89C9
S1132B809DB007461B060D46144610D50B6973B954
S1132B904021FFF76DFF2860286130B90C233B60AA
S1132BA04FF0FF301DB0BDE8F08F40236B61002370
S1132BB0CDF80C804FF00109DFF8A08109932023A0
S1132BC08DF8293030238DF82A3023469A4613F89D
S1132BD0012B0AB1252AF9D1BAEB040B0BD05B46C1
S1132BE022462946384600F06BFD013000F0A780EC
S1132BF0099A5A4409929AF80030002B00F09F80F9
S1132C0000234FF0FF320AF1010A049307938DF871
S1132C1053301A93CDE90523544605224F4814F83E
S1132C20011B00F034FE049AD8B9D00644BF202317
S1132C308DF85330110744BF2B238DF853309AF885
S1132C4000302A2B15D0079A544600204FF00A0C66
S1132C50214611F8013B303B092B4BD9B0B1079207
S1132C6014E0A0EB0803A24609FA03F31343049308
S1132C70D2E7039B191D1B68002B0391BBBF5B426A
S1132C8042F0020207930793B8BF049223782E2BD5
S1132C900AD163782A2B32D1039B02341A1D1B6894
S1132CA043EAE37303920593DFF8C0A0032221787B
S1132CB0504600F0ECFD38B1A0EB0A004022049B22
S1132CC0013482401343049314F8011B0622244860
S1132CD08DF8281000F0DBFD002836D0214B1BBBFB
S1132CE0039B073323F0070308330393099B3344FF
S1132CF009936AE70CFB02320C460120A8E7002383
S1132D0001344FF00A0C19460593204610F8012BA4
S1132D10303A092A03D9002BC6D00591C4E70CFB2D
S1132D20012104460123F0E703AB2A4604A93846EF
S1132D3000930D4BAFF30080421C0646D6D1AB89FD
S1132D405B063FF52DAF09982CE703AB2A4604A98F
S1132D5038460093044B00F00BF8EDE7A343000062
S1132D60AD43000000000000C1360000A94300008C
S1132D702DE9FF470F7E914680460C46782F9A46F0
S1132D800C9E01F1430207D8622F0AD8002F00F0ED
S1132D90DD80582F00F0C38004F1420684F84270AD
S1132DA03AE0A7F16303152BF6D801A151F823F0FB
S1132DB0092E00001D2E0000992D0000992D000001
S1132DC0992D0000992D00001D2E0000992D000062
S1132DD0992D0000992D0000992D0000332F00003B
S1132DE0AB2E0000EB2E0000992D0000992D000061
S1132DF0552F0000992D0000AB2E0000992D0000E6
S1132E00992D0000F32E000033681A1D1B683260F0
S1132E1004F1420684F842300123A8E031682368B3
S1132E20081D30601E0601D50D6803E05D06FBD564
S1132E30B1F90050002D616878DA2D200029A160D5
S1132E4084F843002DDA6D425D480A231646B5FB2B
S1132E50F3F103FB1157C75D06F8017D2F460D46BC
S1132E60BB42F4D9082B0BD12368DF0708D52369AB
S1132E7061689942DEBF302306F8013C06F1FF3653
S1132E80921B22614B4603AA21464046CDF800A07E
S1132E9000F071FC01306FD14FF0FF3004B0BDE899
S1132EA0F08723F004032360CDE721683368080624
S1132EB053F8045B02D4490648BFADB26F2F3360A8
S1132EC03F4814BF0A230823002184F8431066688E
S1132ED0002EA660BADB216821F004012160002DD8
S1132EE0B4D1002EB2D11646BCE7236843F02003C8
S1132EF0236078273348236884F845701F063168B7
S1132F0051F8045B02D45F0648BFADB23160D90703
S1132F1044BF43F0200323601DB11023D4E72848A5
S1132F20E9E7236823F020032360F6E724480A2313
S1132F30CDE733682568181D616930602E061B686B
S1132F4001D5196002E06806FBD5198000231646F6
S1132F50236197E7336800211A1D32601E68626896
S1132F60304600F094FC08B1801B60606368236104
S1132F70002384F8433085E72369324649464046B6
S1132F80D047013088D023689B0714D4E068039BA2
S1132F909842B8BF184681E7012332464946404665
S1132FA0D04701303FF478AF0135E36803995B1AE9
S1132FB0AB42F1DCEAE7002504F11906F5E700BFAE
S1132FC0B4430000C543000038B50023054D044652
S1132FD008462B60FEF7C2FF431C02D12B6803B1E5
S1132FE0236038BDD8110020704730B10021026839
S1132FF0084653881288FDF7F3B90520704737B5A2
S11330000446A8B14568FFF7F0FF014668B9226895
S11330101389528953430193EBB20093C5F30742DA
S1133020C5F30723FDF7FCF90146084603B030BD9C
S11330300521FAE7024658B1118A936952698089D9
S1133040013301325B1A121A9BB292B2FDF7C8B96E
S113305005207047F0B4C8B1C1B10E688C68A642AF
S113306017DA4D68CA68954213DA56EA050112D494
S113307001680F88BC420EDA49888A420BDAC0E93B
S11330800365C0E90542F0BCFFF7D4BF0520F0BCDE
S113309070470420FBE70320F9E773B50D46164695
S11330A0044690B10C3000F02FF880B10123A268DF
S11330B00193D3B20093B1B2C2F30723A8B2C2F30F
S11330C00742FDF7ADF902B070BD0520FBE7012012
S11330D0F9E773B50D4616461C4688B10C3000F06E
S11330E013F878B101230193E3B20093C4F30742C8
S11330F0C4F30723B1B2A8B2FDF792F902B070BDD0
S11331000520FBE70120F9E778B103688B420BDC6B
S113311083688B4208DB4368934205DCC0689042B5
S1133120B4BF002001207047002070472DE9F04F04
S113313085B002921A469DF838300446039300285D
S113314000F08180A1F12005EBB25E2B7DD890F8D0
S11331502830022B1AD13A291AD020291AD0303912
S11331608DB2238CAB4270D94FF0000B90465E4673
S1133170E369019394F825101FFA8BF399420BD855
S1133180B6FA86F0400905B0BDE8F08FADB2E8E7C5
S11331900A25E6E70B25E4E794F82230012B05D055
S11331A0022B1ED0019B53F825A002E0019B13F8CB
S11331B005A04FF0000994F824301FFA89F7BB42A8
S11331C013D894F8243094F827100B449F422ADB38
S11331D094F823300BF1010B2B449DB208F1010844
S11331E0C8E7019B33F815A0E3E71AF0010F0FD0ED
S11331F0029B4246204603EB0901FFF74EFF0128DC
S1133200C1D800B901364FEA5A0A09F10109D2E7D7
S1133210039B002BF7D00299424620466368494439
S1133220FFF757FFEBE7039B53B102994246204651
S113323063683944FFF74DFF0128A4D800B901366B
S11332400137BFB2BDE705209DE702209BE72DE9CA
S1133250F74F0C46984605460C9F9DF834A070B372
S113326069B390F8283063B3C3464FF000098E1851
S1133270B44205D1B9FA89F0400903B0BDE8F08F32
S113328014F8011B0A2907D195F82530C3463B449D
S113329095F826701F44EBE73B465A462846CDF87E
S11332A000A0FFF743FF0128E7D808B909F1010995
S11332B095F8243095F8272013449B44D8E705203B
S11332C0DBE70220D9E708B520B110221C3019B978
S11332D000F0D7F9052008BD00F0DDF90020FAE779
S11332E02DE9F0470446DDE90879084692461E4672
S11332F00D469DF8288000F0DBF994F8241002466E
S1133300414394F8253094F82600012E03440AFB27
S113331003900BD0022E0ED00023CDE908082946D5
S113332020463B44BDE8F047FFF791BF23681B8864
S11333305B1A5B08F1E723681B885B1AEDE770B53D
S11333400C4606688D18AC4201D1002070BD14F8FB
S1133350011B304691FAA1F1090E00F0C1F8F2E721
S1133360026893699B06FCD5704708B500F071F9B3
S1133370FFF73AFEFCF76EFF00F078F9FCF7D4FF94
S11333804FF47A70FEF762FFF6E700F01FB808B555
S1133390FDF734FCBDE8084000F023B808B500F0A0
S11333A00AF8BDE80840FEF7B1BE704770477047A1
S11333B07047704770470F20704708B504220123F7
S11333C011460320FEF7F0FA002008BD08B50422D8
S11333D0002311460320FEF7E7FA002008BDFFF79B
S11333E0ECBF08B5082000F02CF8BDE80840082020
S11333F000F032B8FEE74AB110B5002350F823407C
S113340041F8234001339342F8D110BD70470020A6
S113341070474FF4004070474FF47A707047FEE7EE
S1133420EFF3108072B6704700B962B67047EFF3DD
S11334301180302383F31188704780F3118870471B
S1133440FEE74FF060420123D2F8001E83400B4395
S11334500020C2F8003E70474FF060410122D1F8CD
S1133460003E824023EA02030020C1F8003E704778
S113347008B5FDF75BFBBDE808400021FDF724BC5F
S113348002210320FDF70EBF08B5FFF7F1FFBDE8E9
S11334900840FFF7F5BF10B50446FDF735FB0021E2
S11334A0FDF712FC1CB1BDE81040FDF7EBBE10BDEA
S11334B070B5054614460E46FFF7B2FF2B685C4014
S11334C034405C402C60BDE87040FFF7ADBF7047EE
S11334D04FF0B0435A6812B19A6A002AFAD1704781
S11334E083695B06FCD5C163704700F008B809B175
S11334F000F007B822207047012100F043B80020F3
S1133500704770B506460D46FFF791FF04461C2E22
S113351035D8DFE806F00F18341C1E20342224347A
S113352034342628342A2C2E30343434343434348D
S113353034343200FDF7CEFA002628602046FFF727
S11335407CFF304670BD0120FDF71AFEF4E703202E
S1133550FAE70420F8E70C20F6E70220F4E7062057
S1133560F2E70720F0E70820EEE70520ECE7092062
S1133570EAE70A20E8E70D20E6E71020E4E7002068
S11335802126DAE700207047FEF7B4BB10B56FF0D0
S11335900404204605210134FEF7B8FC3D2CF8D183
S11335A010BD00230B707047F0B585B00D4616466C
S11335B01F46044690B10023C361FEF7E1FDBDF848
S11335C02C302A4602939DF828302946CDE9007311
S11335D020463346FEF73AFD05B0F0BD2220FBE756
S11335E0F0B587B01F4600230D46164604468DF8F5
S11335F01730A8B1C3610DF11701FEF7F1FD9DF875
S113360017207AB9BDF83430294602939DF830303A
S11336102046CDE900733346FEF718FD07B0F0BD30
S11336202220FBE70320F9E7002070474FF0B04366
S11336309A6A1207FCD4186A704782074FF0B042A6
S113364000F00103916948BF43F008030B43936101
S1133650704708B5FDF762F9FFF799FEFFF79EFE84
S1133660FFF7A3FEBDE80840FFF7A0BE08B5FFF7CB
S11336709EFEFFF79DFEFFF79CFEBDE80840FFF7A6
S113368099BE02440346934200D1704703F8011BDC
S1133690F9E7704770470A44431E914200D17047CE
S11336A010B511F8014B914203F8014FF9D110BD47
S11336B0034613F8012B002AFBD1181A013870476E
S11336C02DE9F0471F468E6882460C46BE4290465E
S11336D00B682DD8B1F90C2012F4906F26D06569CF
S11336E0096905EB4505A3EB01097B1C05EBD575C1
S11336F04B446D109D4238BF1D46530527D52946BE
S1133700FFF7B6F9064660B34A462169FFF7C3FFDF
S1133710A38923F4906343F08003A38126614E447C
S11337206561A5EB090526603E46A560BE4200D949
S11337303E4632464146206800F08FF8A3680020D8
S11337409B1BA360236833442360BDE8F0872A46AB
S113375000F0ABF806460028E0D121695046FFF797
S11337601BF90C234FF0FF30CAF80030A38943F053
S11337704003A381E9E72DE9F047164698468A6895
S113378007460B690C46DDF820909342B8BF1346F8
S1133790336091F843200AB10133336023689906FA
S11337A042BF336802333360256815F0060506D13D
S11337B004F1190AE36832689B1AAB422BDC94F8D3
S11337C043302268003B18BF0123920630D404F131
S11337D0430241463846C847013023D023681A348F
S11337E054F80A2C03F00603042B0ABF54F80E5CA9
S11337F0002533684FF0000608BFED1A54F8123C58
S113380008BF25EAE5759342C4BF9B1AED18B5427B
S11338101AD1002008E00123524641463846C847E1
S1133820013003D14FF0FF30BDE8F0870135C1E727
S1133830E1185A1C30200233224481F8430094F8E2
S1133840451082F84310C2E7012322464146384618
S1133850C8470130E6D00136D9E7884210B501EBFC
S1133860020402D98442234607D8431EA14208D049
S113387011F8012B03F8012FF8E7024401468A42AC
S113388000D110BD13F8014D02F8014DF7E7C9B29C
S11338900346024410B59342184601D1002003E0C8
S11338A0047801338C42F6D110BD2DE9F0418046F5
S11338B015460C4621B91146BDE8F041FFF7D8B8CA
S11338C02AB9FFF769F800242046BDE8F08100F02A
S11338D01AF88542064602D8B5EB500FF4D82946AB
S11338E04046FFF7C5F807460028ECD0B5422A4603
S11338F0214628BF3246FFF7CEFE214640463C46CD
S1133900FFF74AF8E0E751F8043C181F002BBCBF4E
S11339100B58C018704700000000000000000000B1
S1133920F8B500BFF8BC08BC9E467047F8B500BFA8
S1133930F8BC08BC9E4670472E2E2F6170705F6CD9
S113394063642E6300444F4E4720484F00323232A6
S113395030303130310032323230303130380025BD
S11339603032643A253032643A2530326400000043
S113397080390000200301640608020001000000F1
S113398000040A0A040306060802000000000000FE
S11339900E040E1F081F0C1F0E0E00001000010E57
S11339A00E0E0F0E071F1F0E110E1C110111110E0A
S11339B00F0E0F1E1F11111111111F0E000E040006
S11339C00200010010000C000104080106000000C0
S11339D000000000020000000000000C04060000CB
S11339E00000000000040A0A1E130904040404046D
S11339F000000000110611080C0102101111060646
S1133A000800021110111111090101111104080912
S1133A10011B1111111111010411111111111002C5
S1133A2000080A00040001001000121E0100000139
S1133A30040000000000000002000000000000027A
S1133A40040802000000000000040A1F0108050227
S1133A500208150400000010190410040A0F0108DC
S1133A6011110606041F04101011110111010101A6
S1133A70110408050115131111111101041111117B
S1133A800A11080201081100080E0D0E160E02118B
S1133A900D060C09040B0D0E0F160D0E0711111156
S1133AA011111F0204081500000000000004000AA0
S1133AB00E04020002080E1F001F00081504080867
S1133AC009100F040E1E00000200080816110F0151
S1133AD0110F0F1D1F040803011515110F110F0EEF
S1133AE004111115040A0402020800000010130155
S1133AF019110711130408050415131111191301E1
S1133B00021111110A11080104100800000000003C
S1133B100000001F1002150002081504060000042E
S1133B20130404101F10110211100606041F0404CC
S1133B30151F1101110101111104080501111911B9
S1133B4001150510041111150A04020204080000ED
S1133B50001E1101111F021E110408030415111186
S1133B600F1E010E02111115041E040204080000A8
S1133B70000000000000000A0F19090004040404F6
S1133B8004000602110402110811110211080604AE
S1133B90080002001511111109010111110409098C
S1133BA0011111110109091004110A15110401026E
S1133BB00808000000111111110102101104090577
S1133BC0041111110110011012190A150A10020230
S1133BD004080000000000000004000A0418160095
S1133BE008020000020006010E0E1F0E080E0E024F
S1133BF00E060002100001040E110F0E071F010E25
S1133C00110E06111F11110E0116110F040E040AD4
S1133C1011041F0E100E001F001E0F0E1E0E020EAA
S1133C20110E06090E11110E0110010F0C16040AD3
S1133C30110E1F0C0406000000000000000000002C
S1133C400000000000000000000000000000000070
S1133C500000000000000000000000000000000060
S1133C600000000000000000000000000000000050
S1133C700000000000000000000000000000000040
S1133C800000000000000000000000000000000030
S1133C900000000000000000000000000000000020
S1133CA0B03C000020030164080802000100000089
S1133CB000186C6C10CE3808600C00000000000086
S1133CC07C307C7CC6FE7CFE7C7C000070001C7C0E
S1133CD07C7C7E7C7EFEFE7CC63C78C606C6C67CAA
S1133CE07E7C7E7C7EC6C6C6C6C6FE7C007C10007A
S1133CF00C00060060003800060000060C000000FE
S1133D0000000000000000000000003018188C00C3
S1133D100000000000186CFEFC6A2C1830186C18A7
S1133D20000000C0C638C6C6C606C6C0C6C6181837
S1133D30387C38C6C6C6C6C6C60606C6C6183066A9
S1133D4006EECEC6C6C6C6C618C6C6C6C6C6C00C0D
S1133D50066038000C00060060000C0006183006EF
S1133D600C00000000000000180000000000001813
S1133D701830D60000000000001848FE162E2C183B
S1133D801830381800000060C63060C0C6060660EF
S1133D90C6C618181C7C70C6F6C6C606C606060635
S1133DA0C618303606FEDEC6C6C6C60618C6C6C661
S1133DB06CC6600C0C606C00043C3E3C7C3C3C3C9F
S1133DC03E0000660C6E3E3C3E3C363C186666C6C1
S1133DD066667E1818306200000000000018006C4F
S1133DE07C10DC001830FE7E1C7E0030C630307043
S1133DF0FE7E7E307CFC00000E00E070F6FE7E0647
S1133E00C61E1EF6FE18301E06D6F6C67EC67E7C7C
S1133E1018C6C6D638FC300C1860C60000606606AA
S1133E2066660C66661830360CD6666666666E067E
S1133E307C6666C63C66300C006000000000000032
S1133E40000000FED0E866001830387E1C7E1C1886
S1133E50C63018C0C0C0C618C6C018181C7C703044
S1133E6076C6C606C60606C6C618303606C6E6C6F2
S1133E7006B6C6C018C6C6FE6CC0180C306000007A
S1133E80007C6606667E0C7C6618301E0CD6666660
S1133E903E56063C186666D6187C18181830000082
S1133EA000000000001800FE7EAC660030186C189C
S1133EB018001C0CC6300CC6C0C6C60CC6C61818E2
S1133EC0387C380006C6C6C6C60606C6C618366698
S1133ED006C6C6C60666C6C618C66CEEC6C00C0CB8
S1133EE0606000FE0066660666060C60661836367C
S1133EF00CC666660626066018663CD63C600C183E
S1133F0018300000000000000018006C10E6DC000F
S1133F10600C00180C001C067C78FE7CC07C7C06BF
S1133F207C7C000C70001C307CC67E7C7EFE06FC13
S1133F30C63C1CC6FEC6C67C06DCC67C187C38C6DD
S1133F40C67EFE7CC07C00FE007C3E3C7C3C0C3E7D
S1133F5066701C6638C6663C065C063E707C18FCBF
S1133F60663E7E30181800000000000000000000CB
S1133F70000000000000000000000000000000003D
S1133F80000000000000000000000000000000002D
S1133F90000000000000000000000000000000001D
S1133FA0000000000000000000000000000000000D
S1133FB000000000000000000000000000000000FD
S1133FC000000000000000000000000000000000ED
S1133FD08000800001010000E0C810003C060200DF
S1133FE000000000050000000000000040420F0037
S1133FF005010000000000000000000000000000B7
S1134000443A2F53696C69636F6E4C61622F736914
S11340106D706C69636974795F73646B5F737569E0
S113402074655F76323032345F365F322D30303132
S11340302F73696D706C69636974795F73646B5F06
S1134040352F706C6174666F726D2F656D6C69626B
S11340502F7372632F656D5F636D752E6300643A11
S11340605C73696C69636F6E6C61625C73696D70BB
S11340706C69636974795F73646B5F737569746584
S11340805F76323032345F365F322D3030315C73DC
S1134090696D706C69636974795F73646B5F355CB7
S11340A0706C6174666F726D5C656D6C69625C697D
S11340B06E635C656D5F6770696F2E6800443A2FAC
S11340C053696C69636F6E4C61622F73696D706CB8
S11340D069636974795F73646B5F73756974655F31
S11340E076323032345F365F322D3030312F73699F
S11340F06D706C69636974795F73646B5F352F707D
S11341006C6174666F726D2F656D6C69622F73726A
S1134110632F656D5F6770696F2E63007F033F1FB8
S1134120443A2F53696C69636F6E4C61622F7369F3
S11341306D706C69636974795F73646B5F737569BF
S113414074655F76323032345F365F322D30303111
S11341502F73696D706C69636974795F73646B5FE5
S1134160352F706C6174666F726D2F656D6C69624A
S11341702F7372632F656D5F727463632E630044E3
S11341803A2F53696C69636F6E4C61622F73696D6A
S1134190706C69636974795F73646B5F7375697458
S11341A0655F76323032345F365F322D3030312FF6
S11341B073696D706C69636974795F73646B5F357F
S11341C02F706C6174666F726D2F656D6C69622FF0
S11341D07372632F656D5F75736172742E63000073
S11341E0012600000400000000000000000100009F
S11341F0000000000B0000000B00000002000000A3
S11342000000202000000000030000008C8C3C0013
S11342100000000000000000000000000000005842
S11342201200000000000000FFFFFFFFFFFFFFFF80
S1134230FFFFFFFF443A2F53696C69636F6E4C6153
S1134240622F73696D706C69636974795F73646BF1
S11342505F73756974655F76323032345F365F320E
S11342602D3030312F73696D706C69636974795FB7
S113427073646B5F352F706C6174666F726D2F732E
S11342806572766963652F696E7465727275707490
S11342905F6D616E616765722F7372632F736C5FFC
S11342A0696E746572727570745F6D616E61676555
S11342B0725F636F727465786D2E6300443A2F5396
S11342C0696C69636F6E4C61622F73696D706C69A0
S11342D0636974795F73646B5F73756974655F7622
S11342E0323032345F365F322D3030312F73696DA6
S11342F0706C69636974795F73646B5F352F706C7C
S11343006174666F726D2F736572766963652F735E
S11343106C65657074696D65722F7372632F736C4D
S11343205F736C65657074696D65722E630001005E
S1134330000005000200000300443A2F53696C6931
S1134340636F6E4C61622F73696D706C696369741D
S1134350795F73646B5F73756974655F763230324D
S1134360345F365F322D3030312F73696D706C6974
S1134370636974795F73646B5F352F706C61746605
S11343806F726D2F736572766963652F7564656CE2
S113439061792F7372632F736C5F7564656C6179D7
S11343A02E6300232D302B2000686C4C006566675B
S11343B04546470030313233343536373839414297
S11343C04344454600303132333435363738396169
S10B43D06263646566000000ED
S10B43D800BEFF7F010000009C
S10F43E0EC430000FC1900202100000048
S11343EC00000650284200000200FFFF02020000F9
S11343FCC0EA2101C0EA21010080000000F049025A
S113440C801A0020241A0020000000009C100020B8
S113441C041100206C1100200000000000000000BA
S113442C000000000000000000000000000000007C
S113443C000000000000000000000000000000006C
S113444C000000000000000000000000000000005C
S113445C00000000FFFFFFFF01000000B501000099
S107446C8D010000BA
S9030A01F1
